:020000041000EA
:1000000000B5324B212058609868022188439860DF
:10001000D860186158612E4B002199600221596106
:100020000121F02299502B49196001219960352056
:1000300000F044F80222904214D00621196600F024
:1000400034F8196E01211966002018661A6600F04E
:100050002CF8196E196E196E052000F02FF8012189
:100060000842F9D1002199601B49196000215960AB
:100070001A491B48016001219960EB211966A021F2
:10008000196600F012F800219960164914480160C1
:100090000121996001BC002800D000471248134993
:1000A000086003C880F30888084703B5996A0420EC
:1000B0000142FBD001200142F8D103BD02B5186610
:1000C0001866FFF7F2FF186E186E02BD00000240BE
:1000D000000000180000070000035F00212200005C
:1000E000F4000018222000A00001001008ED00E03C
:1000F00000000000000000000000000074B24E7A12
:1001000000200420F7010010C3010010C5010010F9
:10011000C1010010C1010010C1010010C101001097
:10012000C1010010C1010010C1010010C701001081
:10013000C1010010C1010010C9010010CB01001065
:10014000CD010010CD010010CD010010CD01001037
:10015000CD010010CD010010CD010010CD01001027
:10016000CD010010CD010010CD010010CD01001017
:10017000CD010010CD010010CD010010CD01001007
:10018000CD010010CD010010CD010010CD010010F7
:10019000CD010010CD010010CD010010CD010010E7
:1001A000CD010010CD010010CD010010CD010010D7
:1001B000CD010010CD010010CD010010CD010010C7
:1001C00000BE00BE00BE00BE00BE00BEEFF3058054
:1001D000103800BEF2EB887198940510B8940510A1
:1001E0003402001090A31AE700201F49086006C8D7
:1001F00081F3088810471D48006800282FD10DA4FE
:100200000ECC002902D000F012F8F9E71849194A7B
:10021000002000E001C19142FCD1174988471749ED
:1002200088471749884700BEFDE701C901C29A42C5
:10023000FBD37047B8940510C0000020941800202C
:100240008CAC051000000420000004208CAC0510CC
:10025000001004200010042000000000704709482E
:1002600005F0B6FA0047000008ED00E0000000D0FD
:10027000B8180020D8E50220E94400103D03001022
:10028000A54400105756000006005250ABB360530F
:10029000F8C8011006005250861C030208C901105C
:1002A000060052505422A29D1CC901100500525054
:1002B000DE65F4688CAC0510F8B5C04610B5064C88
:1002C0002378002B07D1054B002B02D0044800E017
:1002D00000BF0123237010BD181A00200000000089
:1002E00000B00110044B10B5002B03D003490448A3
:1002F00000E000BF10BDC046000000001C1A002036
:1003000000B0011070B505000C002A00210004485F
:1003100006F036F9FA20400003F060FAF5E7C0462F
:1003200000B0011010B5044806F02AF9FA20400088
:1003300003F054FAF7E7C04628B00110F0B585B0D5
:1003400006F02AF915F0F2FF01F002FD01F01CFDA4
:1003500001F036F800F0A8F95A4C20700022012173
:100360000A2009F0FFFB584B1860002201210A20E7
:1003700009F0F8FB554B186000220421282009F0F1
:10038000F1FB534B1860002202210A2009F0EAFB1E
:10039000504B186001F0EEF98025AD004E4B0193F3
:1003A0000126009600232A004C494D480BF08CFB97
:1003B0001C2303934B4B0193009603AB2A004A493D
:1003C0004A480BF081FB2378002B6ED18022484BEA
:1003D0000193032300930023D200464946480BF0C3
:1003E00073FB8024E400454B019302230093002318
:1003F0002200434943480BF067FB434B019301251F
:10040000009500232200414941480BF05DFB414B20
:10041000019303270097002322003F493F480BF038
:1004200053FB3F4B01930095002322003D493E487A
:100430000BF04AFB3D4B01930095002322003C4901
:100440003C480BF041FB3C4B0193009500232200FC
:100450003A493B480BF038FB80223A4B0193009518
:1004600000235200384939480BF02EFB8026360114
:10047000374B0193009700233200364936480BF082
:1004800023FB364B01930095002332003449354855
:100490000BF01AFB002301930095220032493348E8
:1004A0000BF012FB0BF072FBFEE78022104B019366
:1004B000032300930023D2000E492D480BF004FBC8
:1004C0008FE7C046B00E00204CE10020382100200C
:1004D0001420002050300020481A002030B00110B5
:1004E00075050010401A002038B00110A905001051
:1004F000601A002044B00110AD120010501A002004
:100500004CB00110A1070010441A002058B001108F
:1005100065060010541A002068B00110F91A001086
:100520003C1A002074B00110E11D00104C1A00208C
:100530007CB00110150C00106C1A002088B001105E
:10054000D11700105C1A002090B00110690900104A
:10055000381A002098B001106D0F0010341A0020D6
:10056000A8B0011075080010B4B001100D160010ED
:100570003D12001010B50FE00121002015F0BAFD6A
:10058000FA24A40020000BF0F9FC0021002015F053
:10059000B1FD20000BF0F2FC024B1B78002BFBD1CD
:1005A000EAE7C046BAE5022070B50468200001F011
:1005B00097FE0126A640D0231B065E62D0252D069D
:1005C0006E61FA24A40020000BF0D8FCAE6120007C
:1005D0000BF0D4FCF2E710B50121002015F08AFDE4
:1005E00010BD10B50021002015F084FD10BD70B5C0
:1005F0000500002913D1002431E00121002015F06D
:1006000079FD64200BF0BAFC0021002015F072FD8A
:1006100064200BF0B3FC0134AC42EEDB70BD00246F
:10062000FAE70121002015F065FD46200BF0A6FC3D
:100630000021002015F05EFD46200BF09FFC0121FB
:10064000002015F057FD46200BF098FC00210020FB
:1006500015F050FD962040000BF090FC0134022C68
:10066000DFDDDBE700B585B00EE00A4B1A880A49EA
:1006700001A805F067F8094A094901A800F098FDAA
:10068000FA2080000BF07AFC064B1B78002BECD193
:10069000F6E7C046B2E50220C0B00110D407000062
:1006A00054E10020B7E5022010B5162001F018FE35
:1006B000D02424068023DB03A3620022012116201C
:1006C00001F0E2FC63689B0D0120184010BD0000A2
:1006D000F8B505001B4B1B78002B01D000242DE042
:1006E000122001F0FDFDD0231B068022D2025A62A7
:1006F0000421122001F0B0FC134B10229A61134A1E
:100700005A62134B1A68012319009143114A116070
:100710000C4A1370E2E7104F3A68104B53401B0429
:100720001B0C0F4E3360C8200BF028FC3B681B04E9
:100730001B0C3360C8200BF021FC0134AC42EADB17
:10074000F8BDC046B5E5022000000540FFFF0000EF
:10075000140005401410054020000540FF7F0000F4
:100760002010054010B5FF2800D010BD074A0849E9
:10077000084800F01DFD084A1388013B1380074B11
:1007800001221A700220FFF7A3FFEEE7D407000052
:1007900054E10020C4B00110B2E50220B7E5022008
:1007A00030B585B00F236B4401221A70012412E08A
:1007B0000F236B441B780F33DBB2012B21D90F239E
:1007C0006B441D78F42D2BD0A54204D0224B1B780E
:1007D000012B2FD02C00FFF704FF01221F4B1868BC
:1007E00052420F21694409F0D9FBFFF7F4FE1C4B7C
:1007F0001B78002BDCD10F336B441878FFF7B2FF66
:10080000E9E70120FFF764FF0F236B441A78154BCB
:10081000186800230093033300210BF017FECEE786
:10082000114B1868002300930233002200210BF0C3
:100830000DFED0E70D4B1868002300220F216944FC
:1008400009F0D8F9012801D12C00C4E7084805F0C7
:1008500067FE2C00BFE7C046B10E00204CE100202F
:10086000B7E502205C1A0020341A0020382100204D
:10087000D0B0011030B585B04CE02D4B1A886946D8
:100880008A819B788B732B4A2B4903A800F090FC3C
:100890002A4D0021286809F0E5F8294C002120683C
:1008A00009F0E0F8274805F03BFE01F0D3FB1420E7
:1008B0000BF064FB244B18680BF0B0F9234B18685D
:1008C0000BF0ACF9224B18680BF02CFA214805F01C
:1008D00027FE002000F0DEFD00F0C9FD00F0CEFD97
:1008E0001D4805F01DFE2868002109F0BBF82068AE
:1008F000002109F0B7F8FA2000F0C2FF174B186882
:10090000002300930333012200210BF09FFD1448C4
:1009100005F006FE01225242012100200BF0B2FC3C
:10092000104B1B78002BA8D101200BF027FBF7E719
:10093000DCB10110D407000054E100204CE100209C
:1009400038210020E8B001103C1A0020541A002081
:10095000381A0020F8B0011004B101104C1A002020
:1009600014B10110BEE5022070B584B000230393DA
:1009700000240AE003995D4805F002FE039BDCB207
:100980000DE0F12C22D0F22C69D0012252420092CB
:1009900003AB002100200BF0E3FC0128EAD0FA2091
:1009A00080000BF0EBFA01220023009303AB5242CC
:1009B000002100200BF0D4FC0128E2D1039BDCB223
:1009C000FF2119404A4805F0DBFDE8E7494E0021C8
:1009D000306809F047F8484D0021286809F042F8CE
:1009E000464805F09DFD01F035FB454B1868002396
:1009F00000930333002200210BF028FD32200BF07E
:100A0000BDFA002000F046FD00F02AFD00F036FDA2
:100A10003C4805F085FD32200BF0B0FA306800212B
:100A200009F020F82868002109F01CF8364B1868F6
:100A30000BF078F9354B18680BF074F9344B1868E3
:100A40000BF070F9334805F06BFDFA2000F018FF49
:100A5000314B01221A70314805F062FD95E7254EB1
:100A60000021306808F0FEFF234D0021286808F0BF
:100A7000F9FF224805F054FD01F0ECFA224B18680A
:100A80000BF0CCF8214B18680BF0C8F8204B186815
:100A90000BF048F9224805F043FD002000F0FAFC75
:100AA00000F0E5FC00F0EAFC1E4805F039FD1420DA
:100AB0000BF064FA3068002108F0D4FF28680021A8
:100AC00008F0D0FFFA2000F0DBFE134B02221A7070
:100AD0000B4B1868002300930333013A00210BF0FD
:100AE000B5FC114805F01CFD4FE7C04630B10110C0
:100AF00050B101104CE1002038210020E8B0011075
:100B00004C1A002080B101103C1A0020541A002019
:100B1000381A002094B10110B10E0020A8B10110C4
:100B2000F8B0011004B10110C4B10110F0B58FB0DC
:100B300000250027244E01E0261C0135092D1EDC6E
:100B40003C21002000F012FF64200BF017FA002176
:100B5000002000F00BFFFA2080000BF00FFA00F0ED
:100B6000D9FD041CAB0004AA9850011C301C05F0F0
:100B700095FA0028E0D1002F01D10137DDE7FE21F1
:100B80008905301C05F036FA05F0E8FA06000F007A
:100B900002000B000D4805F0F3FC02AC0096019733
:100BA0000B4A0821200004F0E1FD0023E371094D08
:100BB0002A000949200000F0FBFA2A00074920001A
:100BC00000F0F6FA0FB0F0BD00C07944E0B10110BA
:100BD000F4B10110D407000054E10020C0E300206C
:100BE00000B583B00021002000F0C0FE074B18685C
:100BF000002300930333012200210BF027FC04485B
:100C000005F08EFCFFF792FF03B000BD4C1A0020E8
:100C1000FCB1011030B585B0002303939621524BEF
:100C2000009300230022490050480BF05DFF504B19
:100C3000186006E00021002000F098FE4D4805F005
:100C40006FFC01225242009203AB002100200BF006
:100C500087FB0128F5D1039B002BF2D05FE0444BCA
:100C60001C6809F0F9FF0200002300930121200015
:100C70000BF054FF404B1B785BB23C2B1BDD3E4B13
:100C80003C221A703D4B1B785BB23C2B19DD3B4B71
:100C90003C221A70394C0021615689B2364D002031
:100CA000285680B200F062FE2B780F3B2B70237821
:100CB0000F33237025E0002BE4DA2F4B00221A704B
:100CC000E0E7002BE6DA2D4B00221A70E2E7002B5A
:100CD0003ADB2A4B1B785BB23C2B39DD274B3C229D
:100CE0001A70264C0021615689B2234D00202856E7
:100CF00080B200F03BFE2B780F332B7023780F3B34
:100D0000237001220023009303AB524200210020F4
:100D10000BF026FB012821D001200BF02FF9184BF6
:100D20001868002109F0E0F9012800D182E7154B8D
:100D30001B78002B93D1104B1B785BB23C2BC6DD8C
:100D40000D4B3C221A70C4E70B4B00221A70C0E70F
:100D5000002BC6DA094B00221A70C2E700210020DE
:100D600000F004FE6DE7C046E10B001008B2011070
:100D7000F8E402201CB20110B20E0020B30E0020D5
:100D8000641A0020BEE5022010B50400C205D20D91
:100D90000021002306E05B0098B2012313400343C7
:100DA000520801310829F6DD600A400200B21843FA
:100DB00080B210BD10B5040001000B4805F0E0FB47
:100DC00000232A2B0CDC5A000849525AA24201D0B7
:100DD0000133F6E7DBB2FF2B04D0054AD05C10BD2F
:100DE000FF23F8E75E20FAE744B2011064B3011074
:100DF00038B3011070B505000F2407E02B00234124
:100E000001211940044805F0BBFB013C002CF5DA38
:100E10000A2005F051FB70BDC0B00110F0B5C64608
:100E200000B507000E0001230120404201E001331C
:100E3000DBB2B34209DA9A00D259FA2189008A4218
:100E4000F5D38242F3D21000F1E704F0DDFF294A26
:100E5000294B04F070FF05F01FF8804605F07EF97D
:100E600002000B00254805F08BFB254805F088FBA8
:100E7000002403E0302005F01FFB0134B4420CDAFB
:100E8000A300D85905F00FF9414605F007F90028ED
:100E9000F0D0312005F010FBEFE70A2005F00CFB45
:100EA000184805F06DFB0A25002403E0302005F00A
:100EB00003FB013533000A3BAB4211DD6400A4B2F1
:100EC000AB00D85905F0EFF8414605F0E7F80028E7
:100ED000ECD001231C43A4B2312005F0EDFAE8E781
:100EE000094805F04DFB2000FFF784FF200080BC7F
:100EF000B846F0BD333333333333074058B20110B3
:100F000074B2011080B201108CB2011010B5002330
:100F100005E09900074A002088500133DBB21C2B02
:100F2000F7D9054B1868002108F09CFD034805F02F
:100F3000F7FA10BD08E402201420002098B2011036
:100F400010B5084B1B78013BDBB21B2B00D910BD41
:100F5000054805F0E5FAFFF7D9FF024B00221A70A9
:100F6000F5E7C046BDE50220B0B2011070B584B00F
:100F70004B4C20000BF002F84A4805F0D1FA002350
:100F80000393494B009300230022210047480BF0B4
:100F9000ABFD474B186012E0454B1C6809F05CFE46
:100FA000020000230093022120000BF0B7FD0399FB
:100FB000404B99421CD9404B1B781D2B24D0012259
:100FC0003E4B1868524203A908F0E8FF0128F6D109
:100FD000394B1B78002BDFD1354B1C6809F03CFEE8
:100FE000020000230093012120000BF097FDDEE7B3
:100FF000334805F0C5FA304A137898003149039C0C
:10100000445001331370D6E7294B1868002400942C
:101010000023002203210BF081FD274B1C701D21B2
:101020002848FFF7FBFE0400FFF7AEFE0500200096
:10103000FFF7C0FE04002800FFF7BCFE05005E2C91
:1010400001D15E281CD02B0022001F4902A804F009
:1010500079FB1E4E32001E4902A800F0A9F83200AA
:101060001C4902A800F0A4F82A0021001A4805F043
:1010700087FAFA2080000AF081FFFFF747FF9EE71A
:10108000124C22001249154800F092F82200114932
:10109000134800F08DF8134805F042FAE9E7C0461E
:1010A000B80B0000C4B20110410F0010D8B20110FB
:1010B000A4E4022020A10700BDE5022014200020A6
:1010C000ECB2011008E4022018B30110D4070000AC
:1010D00054E10020C0E3002020B3011000B3011050
:1010E00008B3011010B3011010B582B0141E17D050
:1010F000002301226946073120000DF0C1FC0E4A91
:101100001388013313800D4B1868002300226946B1
:10111000073108F06FFD012804D120000DF096FA88
:1011200002B010BD064805F0FBF9044B1868002119
:1011300008F098FCF1E7C046B2E502204CE100203F
:10114000BCB3011010B5002011F016FF114B186050
:10115000002810D0104A114911F0F8FC00280ED1D7
:101160000C4B186800220E4911F0CAFE0A490D48BE
:1011700005F006FA10BD0C4805F0D2F9FAE70B4865
:1011800005F0CEF9034C206811F0C6FE0023236061
:10119000F0E7C046D0E30220D4070000A00C021004
:1011A000E910001008B40110D4B30110F0B301101D
:1011B000F8B507000C0015001B4B1B68002B08D06E
:1011C0000B68002B01D0002A07D1184805F0A8F9B8
:1011D000F8BD174805F0A4F9FAE719F0BBFCA02206
:1011E00081B2920036200DF06FFA061E14D038003E
:1011F00019F0B0FC02003900706805F05BF80A4B8A
:1012000018682B002200310011F0FEFD011E07D1ED
:1012100030000DF01BFADBE7064805F081F9D7E74F
:10122000054805F0ADF9F3E7D0E3022050B4011012
:1012300034B401106CB401108CB4011010B501214C
:101240000A20FFF7D4F90F480AF098FE0E4A0F491A
:101250000F4814F0F9FE0F4A88231B010B21D154CB
:101260000D4805F08DF9FFF76DFF0C4B0C4A1A6025
:101270000C4B0D4A1A6001225242012100200BF052
:1012800001F8F8E7B80B000004004000ACB401100E
:10129000B8B4011078210020C4B4011054E100203A
:1012A000C0A80402C0E30020C0A8040310B50021B8
:1012B0000A20FFF79CF921480AF060FE14F0A4FE12
:1012C0001F4B204A2049214814F0C8FF041E11D1A9
:1012D0001F4805F025F9092C10DC1E4A1E4BD35877
:1012E000002B0BD114F016FFFA20400002F076FA22
:1012F0000134F0E7194805F013F910BD154A164BF3
:10130000D358002B15D0164814F070FD0100154875
:1013100005F036F9FFF716FF134B144A1A60144B09
:10132000144A1A6001225242012100200AF0AAFF49
:10133000F8E7114805F0F4F8ECE7C046B80B0000F8
:101340001027000004004000D4B40110E4B40110E0
:1013500004B5011078210020E8080000E8B401106D
:10136000602A002020B5011054E10020AC140A02CC
:10137000C0E30020AC140A043CB5011010B50628E7
:101380000CD006D8012813D0022814D100F088F818
:1013900010BD1C280FD100F087FAF9E7074B1B7826
:1013A000002B02D000F09AF8F2E700F0F9F8EFE72E
:1013B00000F06CFAECE700F085F9E9E7D0E50220EF
:1013C00010B5102000F08CFF112000F089FFD02410
:1013D000240680235B02636280239B02A3621F4B6F
:1013E00001220C21112000F01FFF022000F078FFE5
:1013F000062000F075FF0423A3623C33A3620022A1
:101400000121022000F040FE00220121062000F010
:101410003BFE01220821022000F0F6FE01220821F5
:10142000062000F0F1FE012000F05AFF1C2000F021
:1014300057FF012200211C2000F026FE0223A36298
:1014400080235B05A36201220C211C2000F0DCFE3E
:1014500001220C21012000F0D7FE10BD7D130010E9
:1014600010B501220821022000F0CEFE10BD10B5FB
:1014700000220821022000F0C7FE10BD10B5002296
:101480000C211C2000F0C0FE00220C21012000F0E5
:10149000BBFE10BD014B18707047C046D0E502205E
:1014A0000A4B9A6A0A4B1B68002B0BD0084B1B682F
:1014B000D31A08490B600968074B994204D9044BB9
:1014C0001A6001E0024B1A607047C04600400540B8
:1014D00094340020DCCE00203F9C000000B583B097
:1014E000244B9A6A244B1B68002B2AD0224B1B6882
:1014F000D31A22490B600968214B994223D91E4B0C
:101500001A60204B1B78002B1DD01F4A1368013333
:1015100013601E4A1278002A17D01D4A127893428F
:1015200011D3002301931B4B186801AA00210BF073
:1015300049F8019B002B06D0174B802252051A60F8
:1015400001E00D4B1A6003B000BD144A12789342BB
:10155000F9D3002301930F4B186801AA00210BF067
:1015600031F8019B002BEED00B4B802252051A6004
:10157000E9E7C0460040054098340020E0CE002056
:101580003F9C0000B9E502204C300020B40E002042
:10159000B60E0020581A002004ED00E0B50E002021
:1015A0000C4B9A6A0C4B1B68002B0FD00A4B1B6824
:1015B000D31A0A490B600968094B994201D9064BB5
:1015C0001A60084A1368013313607047024B1A60AF
:1015D000FBE7C0460040054098340020E0CE0020E4
:1015E0003F9C00004C3000200023044A1360044A52
:1015F0001360044A1360044A13607047DCCE002075
:10160000E0CE0020943400209834002070B588B0DB
:1016100023E0214B00221A60204B1E68201C04F09E
:101620009DFD04000D00301C04F098FD0290039114
:10163000194B186804F092FD0090019122002B00D4
:10164000174904A804F07EF8164A174904A8FFF7C2
:10165000AFFDFA2080000AF091FC144B186804F0EA
:1016600022FD134904F0DDFC041C124B1860124DDE
:10167000286804F0C9FB114A114B04F05CFB04F02C
:101680000BFC011C2B68002BC3D0094804F0B5FCEF
:10169000014B1860C0E7C04664210020B82B002031
:1016A0005CB50110D4070000C0E300204C300020DE
:1016B000C0E7873CC4E30020E0CE00208DEDB5A05C
:1016C000F7C6B03E00B583B00B0705D50C4B9A6A40
:1016D0000C4B1A6003B000BD094B9A6A0A4B1A60A2
:1016E00000230193094B186801A908F0DFFB019B57
:1016F000002BEFD0064B802252051A60EAE7C04665
:1017000000400540D8CE0020D4CE0020681A00202A
:1017100004ED00E070B5124C0021206808F0E4FCF4
:10172000D0252D06802676026E6100200AF026FC68
:10173000AE612068642108F0D7FC012801D0094877
:1017400070BD094B1868094B1B68C01A04F0ABFC4C
:10175000074904F066FC002104F04CFCF0E7C046A9
:10176000681A002000C07944D4CE0020D8CE0020D2
:10177000E73A8D3C10B503220021012008F0F2F970
:101780000F4C206003220021012008F0EBF90D4BE3
:1017900018602368002B02D0002808D010BD0A482A
:1017A00004F0BEFEFA20400002F018F8F7E7074800
:1017B00004F0B6FEFA20400002F010F8F7E7C04649
:1017C000681A0020641A00206CB5011098B5011049
:1017D00010B5244B1868002108F086FC224B00222B
:1017E0001A6022480AF0CAFB214804F099FE00243E
:1017F00010E0002C2CD11F4B1888FA2292000023F5
:10180000002104F0D7FBFA229200002304F072F8C2
:101810000AF0B4FBFFF77EFF134B186018681649F7
:1018200004F034FC0028E4D00F4B186804F096FC58
:1018300002000B00114804F0A3FE002CDBD1094B81
:10184000186800230022002108F0D4F90134D2E7FF
:10185000044B1868002108F047FC00F0EFFB00245F
:10186000C9E7C046641A0020B82B0020B80B00005E
:10187000C8B50110B80E00200000A041E4B5011069
:10188000014B18807047C046B80E00200B0703D5E7
:10189000044B01221A7070474B07FCD5014B002204
:1018A0001A70F8E7BEE5022010B582B00F4B9C6AB3
:1018B0000F4B1B68002B03D0E31A0193632B03D853
:1018C0000B4B1C6002B010BD00230093094B18683D
:1018D00000236A4601A908F055FA009B002BEFD0BF
:1018E000054B802252051A60EAE7C04600400540D9
:1018F0009C3400201420002004ED00E010B50023EB
:10190000054A1360054A1360054A1360054A1360CF
:10191000FFF76AFE10BDC04674340020CCCE002014
:1019200078340020D0CE002010B500280CD004F070
:10193000BAFB064904F075FB054904F072FB011C73
:10194000044804F05AFB10BD0020FCE7BD37863583
:101950000000A041B1E1A93E10B504F0A9FB024985
:1019600004F05FFB10BDC0460AD7A33B8301C31838
:101970005B00C0188300C01800040B4B1B68584064
:10198000000C0004094B18608B01CB185B00C918D0
:101990008B00C91889B2064B1B6859400904090C11
:1019A000044B19607047C0469800054098100540E8
:1019B0007000054070100540F8B5041C0D1C1700A0
:1019C0001E00444904F06AFB002800D0414C00216D
:1019D000201C04F063FB002806D03F49201C04F0C3
:1019E0004FFB002800D03C4C0021201C04F048FB99
:1019F000002858D1201C04F0B1FB384A384B04F0C1
:101A00009AF90022374B04F096F904F03DFA0404E9
:101A1000354B18684440240C2404344B1C60002FC0
:101A200043D0D0231B068022D2015A61802292012A
:101A30009A612849281C04F031FB002800D0254D6C
:101A40000021281C04F02AFB002806D02249281C6B
:101A500004F016FB002800D01F4D0021281C04F0C4
:101A60000FFB00282AD1281C04F078FB1B4A1C4BD2
:101A700004F061F900221B4B04F05DF904F004FA54
:101A800080B21B4B1B6858400004000C194B1860B7
:101A9000002E15D0D0231B06802212015A6180220D
:101AA00052019A61F8BD0024A4E7D0231B068022CE
:101AB000D2019A61802292015A61BAE70025D2E7E9
:101AC000D0231B06802212019A61802252015A61A2
:101AD000E8E7C0460000C842000048427B14AE4719
:101AE000E17A843FE0FFEF40980005409810054000
:101AF0007000054070100540F0B5DE4657464E4672
:101B00004546E0B583B020E0774B01221A70774854
:101B100004F006FD20E0744B1B78002B08D0744BBA
:101B20001B78002B04D10023724A1360724A1360A1
:101B3000724B1B78724A12786F4909686D480068C9
:101B4000FFF73AFF19200AF019FA6E4B18680021C6
:101B500008F0CAFA0128D7D06B4B1B78002BDAD0DB
:101B6000614B1B78002BD6D1684B1868FFF7DCFE61
:101B7000071C674B1868FFF7D7FE061C5D4B1868FB
:101B800004F0B8FAFFF7E8FE051C5B4B186804F098
:101B9000B1FAFFF7E1FE041C391C281C04F027FAF7
:101BA000051C311C201C04F022FA041C5949281C75
:101BB00004F037FA584F396804F01CFA3860574B74
:101BC0001E68311C19F00CFA554B1B689946191CFC
:101BD00019F0C6F9009038604E49201C04F021FA33
:101BE000504F396804F006FA3860311C19F0F8F9E2
:101BF000494619F0B5F9061C38604B4A93461168FE
:101C0000281C04F0F4F9494904F00BFA8046484ACC
:101C100092461168201C04F0EAF9444904F001FAE4
:101C20000190444B1968281C04F0FBF98146424B93
:101C30001968009804F0F5F9011C484604F0DAF937
:101C4000071C3E4B1968404604F0EBF9011C381C98
:101C500004F0D0F9071C3A4B1968201C04F0E1F994
:101C60008046384B1968301C04F0DBF9011C4046F3
:101C700004F0C0F9061C344B1968019804F0D1F93E
:101C8000011C301C04F0B6F9061C5B461D6053466F
:101C90001C60391C381C04F0ADF92C4904F0C1F962
:101CA000041C311C301C04F0A5F9284904F0B9F9D2
:101CB000051C264F391C201C19F092F90026311CF6
:101CC00019F04EF9041C391C281C19F089F9311C33
:101CD00019F046F9011C094B1B78094A1278201C9F
:101CE000FFF76AFE2EE7C046B6E50220F4B5011004
:101CF000B8E5022094E3002098E30020D50E0020F0
:101D0000D40E0020641A0020B4E50220DCCE0020AE
:101D1000E0CE0020CDCCCC3C74340020D80E002086
:101D2000DC0E002078340020CCCE002000002042C1
:101D3000D0CE0020CC0E0020C40E0020BC0E00200F
:101D4000D00E0020C80E0020C00E00200000C842A7
:101D500010B50E2000F0C4FAD02424068023DB0145
:101D600063620D2000F0BCFA80239B0163620B20AC
:101D700000F0B6FA80231B0163620C2000F0B0FA79
:101D800080235B01636210BDF8B504210F2000F0D1
:101D900063F90D4D98277F009023EF500B4E0C33C5
:101DA000EE500B4B1B68012422009A43094B1A602A
:101DB00004210A2000F050F9AF666E67064B1B68DD
:101DC0009C43064B1C60F8BD00000540FFFF00006F
:101DD0008C0005408C1005406400054064100540EF
:101DE00000B583B00023019356E0222B09DC002BC1
:101DF00000DAF8E0222B00D9F5E09B00804AD358A6
:101E00009F46402B00D0EEE0FFF7EEFB00237D4A1B
:101E100013707D4A13707D4B7D4A13607D4A1360B9
:101E200001237D4A13707D4A137035E0602B00D189
:101E3000CBE0802B0ED1FFF7D7FB0123714A137043
:101E4000714A1370714A72490A6072490A60724A93
:101E5000137021E0502B00D0C5E00023694A1370B5
:101E6000694A13706A4A6E4911606A4A6D49116085
:101E7000694A137010E00023654A1360654A1360D5
:101E80000123604A1370604A1370634B00221A707A
:101E9000FFF7AAFBFFF732FD0122634B186852429D
:101EA00001A908F07BF80128F6D15C4B00221A70DA
:101EB000019B442B26D098DD882B14D0B6DD902BC7
:101EC00074D0A02B00D08EE001234E4A13704E4AEE
:101ED00013704F4B534A1A604E4B514A1A604E4B87
:101EE00000221A70D8E70123464A1370464A13703D
:101EF000474B4E4A1A60474B4D4A1A60464B0022E8
:101F00001A70C9E700233F4A13703F4A1370404AD2
:101F1000464911603F4A464911603F4A13703F4BA2
:101F200001221A70B8E70023364A1370364A01219D
:101F30001170374A00211160364A3E491160364A15
:101F40001370FFF7DBFCA7E700232E4A13702E4A1D
:101F5000012111702E4A334911602E4A3549116012
:101F60002D4A1370FFF7CAFC96E7264B01221A7020
:101F70000023254A1370264A2E491160254A002164
:101F80001160254A1370FFF7B9FC85E71D4B01224C
:101F90001A7000231C4A1370264A1D490A601D4905
:101FA0000A601D4A1370FFF7A9FC75E70123154A63
:101FB0001370154A1370164B1F4A1A60154B194AB5
:101FC0001A60154B00221A7066E700230D4A137041
:101FD0000D4A13700E4A134911600E4A10491160E0
:101FE0000D4A137058E7FFF7FFFA0023084A136001
:101FF000084A1360084B00221A70FFF77FFC4BE77A
:1020000008B60110D40E0020D50E00200000BE42FC
:1020100094E3002098E30020B4E50220B8E5022014
:102020000000B44200007042382100200000C84285
:102030000000C44200008C420000BA4210B5034BBD
:1020400000221A70024804F06BFA10BDB6E50220B7
:1020500094B601107047000010B58300084A9446FA
:1020600063441C6840226240C02414408022520114
:1020700013431C60C000034B9C466044416010BD8C
:1020800004C001400040014080000B4B9C4660446E
:1020900000290DD00823002A0CD004221343026823
:1020A00053400C22134080225201104303607047BA
:1020B0000023F0E70022F1E704C00140002909D025
:1020C0008000094B9C46604480239B0118430223F7
:1020D000036070478000044B9C466044C0239B0112
:1020E000184302230360F4E704C0014070B5040004
:1020F000D0231B061D68AA000C4BD358002B0AD016
:10210000002803D0AD00094BEC5070BD08490D20EC
:1021100000F094FBF6E70028F7D0AD00034BE85041
:10212000002203490D2000F06FFAEEE72421002081
:102130004922001070B5D0231B061B689D00094C76
:102140002C59204207D19B002043064C18510D20EA
:1021500000F05AFA70BD044B044ACC21044802F046
:10216000A5F9C0463CE10020A8B6011078B70110DF
:10217000D4B6011010B50400D0231B061B689B00C9
:102180000A4A9B5818420BD00D2000F057FBD02371
:102190001B061B6805499B005A58A2435A5010BDA4
:1021A000034B044AD621044802F080F93CE10020A8
:1021B00028B7011054B70110D4B60110072303400B
:1021C0009B00C00899403C308000014BC1507047D3
:1021D00000400140F8B507000C0016001D00FFF795
:1021E000EDFFFB089B00ED1807203840800084407D
:1021F000002E04D080239B011D432C60F8BDC0231A
:102200009B011D432C60F9E710B5D0231B061B680A
:10221000002B03D0024BFFF7DDFF10BD014BFAE7A7
:10222000304101400041014070B514001D00FFF72E
:10223000EBFF2800FFF75AFF002C00D170BD0121F1
:102240000D2000F08DF9F9E7F0B5D6464F46464629
:10225000C0B5D0231B061F68BA001D4BD358984643
:10226000002F03D01B4B9946002623E01A4B9946BA
:10227000FAE724090135002C1BD033000833AB42A8
:1022800017D90F231A00224092462342F1D0BB00F7
:10229000124A9A580123AB401342EAD15146280012
:1022A000FFF78CFF4346002BE3D051462800C04780
:1022B000DFE708361D2E06D8F30808339B004A4690
:1022C0009C583500D7E7E0BCBA46B146A846F0BDF9
:1022D0002421002030410140004101403CE1002028
:1022E00010B501238340D022120693629361052129
:1022F000FFF7B2FE10BD0000034B1B680220184020
:10230000431E9841C0B2704700C00640EFF31080F2
:1023100072B6034B1B68002BFBD0BFF35F8F704777
:102320002C0100D0BFF35F8F024B00221A6080F3B4
:10233000108870472C0100D0F8B506000C0015007D
:10234000FFF7E4FFE308F718F15C072222400123BE
:1023500093400B4205D1DBB20B433B70FFF7E2FF2A
:10236000F8BD2100280002F03BF9F0B583B006006B
:10237000019114001F00FFF7C9FF00E00134BC42C7
:102380000CD8E308F518F35C0721214001228A40AC
:102390001A42F3D1D2B21A432A7001E001246442F6
:1023A000FFF7C0FF002C02DB200003B0F0BD019B53
:1023B000002BF9D0089802F013F9000070B5050061
:1023C0000C00FFF7A3FFE308EE18EA5C07210C40BE
:1023D0000123A340134204D09A433270FFF7A2FFB7
:1023E00070BD034B034A2C31034802F05FF8C0462E
:1023F000ACB7011020B80110CCB70110002307E0E2
:10240000054A9A189200BFF35F8F002111600133D3
:102410001F2BF5D97047C04640000034054A10789C
:10242000431CDBB21370172B02D9130010221A7051
:102430007047C046E00E002010B50100024A034874
:10244000FFF77AFF10BDC04630B8011034210020DC
:1024500000B583B00100044B00931F2318220348EA
:10246000FFF783FF03B000BD50B8011034210020F6
:10247000074B9B68103080001950BFF35F8FBFF38C
:102480005F8F044B0021196082F310887047C046AB
:1024900000ED00E0240100D01F23181A704700004F
:1024A00010B5091A081F0A4B9C466144094A91421B
:1024B00008D8C30706D440104005400D064B18430A
:1024C00080B210BD054B064AA321064801F0EEFF7D
:1024D000FC070000FE0F000000E0FFFF6CB80110D9
:1024E000ECBA01109CB8011010B5091A04394C0857
:1024F000090B08D14905490D064A11430180064BD5
:102500002343438010BD054B054AAB21054801F02C
:10251000CDFFC04600F0FFFF00F8FFFFECB8011050
:10252000C0BA01109CB8011001238340034A10680F
:102530001840431E9841C0B27047C04600E100E019
:10254000002904D0034B1860034B18607047034BFD
:102550001860FBE780E200E000E100E080E100E0DD
:1025600010B5012383401800FFF7EAFF10BD0000FB
:1025700001238340014A13607047C04600E200E037
:10258000024B9B6810308000C058704700ED00E09F
:1025900010B5FFF7F5FF002805D0054BC01A2F280E
:1025A00003D8012010BD0020FCE70020FAE7C04658
:1025B000E40E002070B504000D00EFF3108672B633
:1025C0000C4B1B68002BFBD0BFF35F8F2000FFF785
:1025D000D7FF094B984201D0A84205D1320029000B
:1025E0002000FFF745FF70BD044B054A86210548D2
:1025F00001F05CFF240100D0CD010010FCB80110F7
:1026000020BB01109CB80110F0B5DE4657464E467F
:102610004546E0B589B0814601911500EFF3108A77
:1026200072B6744B1B68002BFBD0BFF35F8F724BED
:102630000027DF57002F40DB7C00E419A4006F481F
:1026400024180622A2566C4B1A706D4B9A684B46A2
:1026500010339B00D35898461E001B1A2F2B38D9D5
:10266000684B98452FD105AE674B33807B009B4666
:10267000D8198000614B9846404402306349FFF707
:102680000FFF7080624BB380FF23B371F571019B24
:1026900007935F44BF0047440ECE0EC701231C437F
:1026A000A046524641464846FFF7E2FE09B0F0BC5C
:1026B000BB46B246A946A046F0BD564B564AD72166
:1026C000564801F0F3FE564B534ADE21534801F0C1
:1026D000EDFEC04340440C2103F0CEF8002912D196
:1026E00001239E43B34633000026DA79AA4211D96A
:1026F0000621595600290CDB4A00521892001E0090
:102700003E4B9B18F1E7474B434AEA21434801F00F
:10271000CDFE1E00002E3AD005AB434A1A80813A06
:102720005A800623F3560293002B17DA3F4805AB75
:102730009B469880029A9A71DD71019A0792301D2A
:102740002100FFF7ADFEB080B7717B00DB199B0065
:102750002A4FFF185B4607CB07C7A2E77800C019CE
:102760008000264BC0180430321DB388D90A1C29BA
:1027700007D15B055915023149005118FFF790FE4A
:10278000D5E72B4B2B4AB121244801F08FFE05AE33
:102790001D4B33807B000293D8198000174A904666
:1027A000020042440392901C1849FFF779FE7080A2
:1027B000039A101D5946FFF773FEB0801E4B5A4610
:1027C0004146521A524153431B0DB371F571019AA0
:1027D0000792029B9C466744BF0047440ECE0EC73B
:1027E000114B5A461380813B538001231C43A04662
:1027F00057E7C046240100D0C8E50220E40E0020BF
:1028000000ED00E0CD01001000A1FFFF140F00203B
:1028100001BDFFFF34B9011008BB01109CB80110C5
:102820005CB9011084B901100148000001BD00002D
:10283000F8B90110F8BA0110AAAA0000F0B5CE4606
:10284000474680B583B006000D00EFF3108872B6DE
:10285000564B1B68002BFBD0BFF35F8F544B9A681D
:1028600034001034A300D758524B9F4207D0AF42D8
:1028700000D198E00197504BFB1A2F2B09D9424603
:1028800039003000FFF7F4FD03B0C0BCB946B046D4
:10289000F0BD3000FFF748FE814600213000FFF711
:1028A0005FFEBFF35F8FEFF30581002901D08C42FB
:1028B00011D10123019C9C430022A368AB4212D09A
:1028C0000622A256002A0DDB53009B189B00220013
:1028D000394CE418F1E73621384B394AFF31394891
:1028E00001F0E4FD2200AB4256D106256557002DCC
:1028F00038DB6B005B199A002F4B9B189A68A2601B
:10290000DA79E27106229A56A2719B795BB2002BAA
:102910000FDA2D48A0806B005B199B00264AD31864
:102920002A4A11789971157049463000FFF718FE50
:10293000A5E7201D6B005B199B001F4A9B181A1D01
:102940009B88D90A1C2907D15B055B150233590006
:102950005118FFF7A5FDDDE71D4B1E4AB1211948AF
:1029600001F0A4FD002912D1002A0ED0FF2393719B
:10297000194B9380154A1378A371184B0E49641AAA
:10298000644163431B0D1370CEE70A4FF2E7201D2D
:102990001349FFF7A9FDC7E76A21124B084AFF3127
:1029A000084801F083FD034F69E7C046240100D0C9
:1029B00000ED00E0CD010010E40E002010BA01107F
:1029C000D8BA01109CB8011001BD0000C8E5022072
:1029D000F8B90110F8BA011001BDFFFFAAAA000062
:1029E0001E0F002044BA011010B5032304009C43BD
:1029F000064A9446644422681840C000FC33834071
:102A00009A43130081400B43236010BD00E400E0B3
:102A100070B5012101432E4BCB1A2F2B28D8EFF391
:102A20000583002B2BD0EFF3108C72B6294A126865
:102A3000002AFBD0BFF35F8F274A0400244D641B9C
:102A400064416243120D54B2244A92689B00D258EA
:102A50008A421BD00022032A32D853009B189B00C5
:102A60001B49CB189B795BB2A3421FD00132F2E71E
:102A7000C7211B4B1B4A49001B4801F017FD92213F
:102A80001A4B184AFF31184801F010FD134A92689A
:102A90001749D150174B1A7882711C70BFF35F8FA2
:102AA0000C4B00221A608CF3108870BD0D0053008F
:102AB000991889006918FF268E710F4A8A80E9E704
:102AC000D1210E4B074A4900074801F0EFFCC046F0
:102AD000E40E0020240100D0AAAA000000ED00E0CE
:102AE0004CBA0110A4BA01109CB8011074BA0110BC
:102AF000CD010010C8E5022001BDFFFF80BA011022
:102B00000022044B02E0044902C30132072AFAD929
:102B10007047C04600E400E08080808010B5FFF779
:102B2000BBFC01000148FFF749FC10BDD5E50220C0
:102B300000B583B00100064B009305230022054831
:102B4000FFF713FC002801DB1F23181A03B000BD98
:102B500088BA0110D5E5022070B504000E001500FA
:102B6000FFF75CFC0100200000F006F8A680E5807D
:102B7000BFF35F8F70BD0000024B9C46614489002B
:102B8000016070474000003410B50400FFF746FCB8
:102B900001002000FFF7F0FF01235B426360BFF3F9
:102BA0005F8F10BD10B50400FFF738FC0100200056
:102BB000FFF7E2FF01235B42636000232372BFF350
:102BC0005F8F10BD034B9C46614489000160BFF3D9
:102BD0005F8F70474000003410B504000120FFF7FC
:102BE00037FC01002000FFF7EDFF10BD70B50500B8
:102BF0000C00080000F09AFF0949200000F0DAFEFE
:102C0000FFF70CFC074B9C466044800068602C7505
:102C1000D0231B061B786B75A400034BE55070BDD9
:102C2000292F001040000034BCCE002010B5084B06
:102C30001A68EFF3108172B61368002BFCD0BFF353
:102C40005F8F034806F0E6FB0020002110BDC04660
:102C500068E3002010B5002922D003681B7B99424D
:102C60001ED8174B9C466144090183689C46614409
:102C70000C684968002A19D003681B7B9A4215D852
:102C800083680F488446624412019A18106853689A
:102C9000020001208B4201D80ED00020C0B210BD2E
:102CA000084B094A3C21094801F000FC054B064A43
:102CB0003C21064801F0FAFBA242EFD8EDE7C046FE
:102CC000FFFFFF0F40BD0110E0BF0110F4BC011079
:102CD00010B500291ED0037B99421BD84B005B180E
:102CE000033B0468A4466344002919D0002A1DD080
:102CF000914221D0002A25D0047BA24222D8046828
:102D000050008018033820188170197800291FD1CD
:102D10001A7010BD104B114A6821114801F0C6FB12
:102D2000104B114A6F310E4801F0C0FB0F4B0E4A99
:102D300070210B4801F0BAFB0D4B0B4A712108487A
:102D400001F0B4FB044B054A6821054801F0AEFBD5
:102D500041701A70DDE7C04664BD011060C001100B
:102D600080BD0110E0BD01103CC00110ECBD0110A0
:102D7000F8BD011070B506000D001400002914D034
:102D8000002A14D0806873689847002806D0220073
:102D900029003000FFF79CFF280007E02A002100EF
:102DA0003000FFF795FF200000E0100070BD080024
:102DB000FCE70000F0B583B00500009201930AAB78
:102DC0001C780BAB1F78002C26D003685A7B9442EA
:102DD00007D10123002B19D1002C3BD1200003B0D7
:102DE000F0BD002C0CD01A7B944209D81A686300FD
:102DF0001B19033BD3189B78002BEBD00123E9E789
:102E00003E4B3F4A68213F4801F050FB3E4B3F4A52
:102E100067213F4801F04AFB03689C7B002CDBD014
:102E200012D01A7B94420FD862001219033A196823
:102E30008C46624451789973002900D1D9730023DC
:102E4000937053701370C7E72C4B2D4A68212D489F
:102E500001F02CFB002C3AD02B681B7B9C4236D80F
:102E60002C4BE3181B01AA6894466344009A1A602D
:102E7000019A5A60089A9A60099ADA602E68002CC2
:102E80002BD030D0337B9C422DD863001B19033BE1
:102E900032689446634400229A705A701A70717BAB
:102EA00022003000FFF766FF7073844200D095E780
:102EB000287D009A019B00F0C5FD061E01D0002F61
:102EC00017D00C9B002B00D188E71E7086E7124BB1
:102ED000124A3C210E4801F0E9FA114B114AA52192
:102EE000084801F0E3FA054B054A6821054801F05E
:102EF000DDFA2868210001F01BF8E2E764BD01104B
:102F000060C0011080BD011010BE01106CC0011026
:102F1000F4BC0110FFFFFF0F40BD0110E0BF011026
:102F2000F0BC011050C00110F0B5DE4657464E46C9
:102F30004546E0B58BB00990002308938200B54B5D
:102F4000D658370052E0B44BB44A3F21B44801F0A0
:102F5000ADFAB44BB44A3C21B44801F0A7FA0029B9
:102F600001D1002869D10021404600F0D7FFA042DE
:102F700019D12A686B6806920793AB689846EB688C
:102F80009A464346002B14D0002C18D03B681B7B7C
:102F90009C4214D8631EFA68D35C08931B02184342
:102FA0003861002015E0A24BA24A8E219F4801F013
:102FB0007DFAA14B9F4A92219C4801F077FA994BE8
:102FC0009E4A4121994801F071FA00239A46984699
:102FD00000207B68BFF35F8F00221A6086F31088A1
:102FE0004346002B32D1002800D10CE100F0C2FC96
:102FF00002000B1EA7DB00200021069007917868D5
:10300000EFF3108672B601680029FCD0BFF35F8F22
:10301000396888464C7B002CD7D09AD0097B8C42EB
:1030200097D8874965182D01B9688C46654428688A
:103030006968801A9941002991DD2A686B680998AE
:1030400000F000FD00239A469846C2E7089B1B0249
:103050002343994651461800C04705000E007A6880
:10306000EFF3108B72B6136859424B41D9B2002B63
:10307000F9D1BFF35F8F002E1EDB002E46DD3B69CA
:10308000002B47D04B456DD100F074FC02000B1EA5
:103090006EDB52197341002B70DB002B72DB0021B9
:1030A00004910131039102945146019141460091EE
:1030B0003800FFF77FFE4CE03B69002BDDD04B452D
:1030C00014D1069A079B521BB341002B14DB002B33
:1030D00016DB0021049101310391029451460191C4
:1030E000414600913800FFF765FE32E0554B514AEA
:1030F000A1214E4801F0DAF901225242524BE6E793
:10310000454B464A3F21464801F0D0F9002E01D1F7
:10311000002DB4D13B68002C50D05A7B944237D15B
:10312000012100294AD1DA7B002A4DD19A7B002A5D
:1031300003D1DA7B002A5AD19C73DC73002C5CD05B
:103140003B681B7B9C4258D8FA68013C135D0133F5
:10315000135500233B617A68BFF35F8F13608BF3D5
:10316000108843E7374B334AA421304801F09EF9D9
:10317000294B2A4A3F212A4801F098F9012252425C
:10318000314B8AE7244B254A3F21254801F08EF92F
:10319000002C0DD01A7B94420AD862001219033A0F
:1031A0001868844662449278002ABAD00121B8E7B0
:1031B000264B274A6821274801F078F9264B274AF1
:1031C000F621244801F072F9002A0AD0197B8A42BC
:1031D00007D851008A18033A19688C466244547023
:1031E000A4E71A4B1A4A68211A4801F05FF91C4BF0
:1031F0001A4AFB21174801F059F90A4B0F4A41219D
:103200000A4801F053F90BB0F0BCBB46B246A946E0
:10321000A046F0BDBCCE0020A4BB0110ACBF011085
:10322000C0BB011040BD0110E0BF0110F4BC011093
:1032300038BE0110C4BF011050BE011018C00110EB
:10324000FFFFFF0F5CBE0110FFFFFF7F64BD011099
:1032500060C0011080BD011098BE01102CC001108B
:10326000BCBE011010B50C4B5B68002B04D00A21CA
:103270000A48FFF781FC10BD074C2300084A1021C3
:10328000206800F03DFD032000F050FB03212000EA
:10329000FFF7ACFCEBE7C0462C0F002068E30020F2
:1032A000552C001010B5064B5B68002B01D004486C
:1032B00010BD044B044A5E21044801F0F7F8C046F3
:1032C0002C0F0020D0BE011000C00110F4BC011072
:1032D00070B50500182002F091FF040002000C49AF
:1032E000280000F014FD20601021280002F0A4FF47
:1032F000A0600121280002F09FFFE060012000F0A3
:1033000029FB01002000FFF771FC200070BDC046C2
:10331000552C001010B50400164B98421DD0037DAB
:103320009900154A8A5882421DD19B00124A0021F9
:103330009950006800F001FD207D002100F03AFB6B
:10334000207D00F0FFFAE06802F096FFA06802F02E
:1033500093FF200002F090FF10BD084B084AD321D4
:10336000084801F0A3F8084B054AD721054801F0A9
:103370009DF8C0462C0F0020BCCE002044BA01109E
:10338000ECBF0110F4BC0110F4BE0110F0B5DE4634
:1033900057464E464546E0B58BB0804616001F00A6
:1033A000149B9A46159B994616AB1B789B461F2388
:1033B00002AA9446634400221A702BE0002809D028
:1033C00042461268127B904204D8421E4146C968A8
:1033D0008A5C41E0404B414A4121414801F066F896
:1033E00007984CE0361BAF41002F07DB002F11DAA6
:1033F0003C4B3D4A3F213D4801F058F801267642BA
:103400003B4FF3E7374B384A3F21384801F04EF83D
:10341000002F4FDB43465A68EFF3108472B61368EF
:1034200059424B41D9B20791002BF8D1BFF35F8FBE
:103430001F3302AA94466344049300230393029328
:103440004B4601935346009332003B004046FFF742
:10345000B1FC031EB2D1020041464968BFF35F8F41
:1034600000250D6084F31088002B29D01F2302A9AA
:103470008C4663441B78002BB2D112021043002B00
:1034800020D05B46002B1DD04946D04704000D00DC
:1034900003000B431DD00029A4DB00F06BFA0600EB
:1034A0000F1EAFDB36196F41002FB1DA01267642CD
:1034B0000F4FADE70B4B0C4A3F210C4800F0F6FFD5
:1034C000012040420BB0F0BCBB46B246A946A04624
:1034D000F0BD0798F6E7C04640BD011018C00110C6
:1034E000F4BC0110A4BB0110ACBF0110C0BB0110A3
:1034F000FFFFFF7FF0B589B005001F216944002060
:1035000008706868EFF3108772B601680029FCD074
:10351000BFF35F8F1F2169440491012103910021B2
:1035200002910F9901910E9900912800FFF742FC3A
:103530000400031E12D106006A68BFF35F8F0021EA
:10354000116087F31088002B1CD01F236B441B785D
:10355000002B13D13002204309B0F0BD002807D062
:103560002A68127B904203D8421EE9688E5CE3E72A
:10357000064B074A4121074800F098FF287D00F0DC
:10358000F5FAE7E701204042E6E7C04640BD0110FA
:1035900018C00110F4BC0110F8B50400002900D1D6
:1035A00062E04268EFF3108572B6136858424341F7
:1035B000D8B2002BF9D1BFF35F8FCBB22268567B14
:1035C000B3421BD10120002848D0206988422BD06B
:1035D000090AC9B2002B2ED02068007B83422AD86A
:1035E000581EE668305C88422BD000206368BFF329
:1035F0005F8F00221A6085F31088F8BD002B0DD074
:10360000167BB3420AD85E00F618033E1768BC4624
:103610006644B678002ED6D00120D4E7134B144A66
:103620006821144800F042FF2C21134B134AFF314C
:10363000134800F03BFF134B134A4121104800F0A0
:1036400035FF1900100000F073FC0028CED199213D
:103650000E4B0A4A49000A4800F028FF23698B42B2
:10366000C4D100232361C1E70020C6E764BD011077
:1036700060C0011080BD01101CBF011094BF01107B
:10368000F4BC011040BD011018C0011040BF011072
:10369000407D7047F0B587B006000F00EFF305835B
:1036A000002B1FD196246442E517A4197D418D4259
:1036B00002D803D1844201D900240025002D14DB57
:1036C0000494059500F056F902000B1E13DBA41AB2
:1036D0009D41002D17DC14D03000390000F056F960
:1036E00007B0F0BD204800F07BFF204B204A3F216F
:1036F000204800F0DBFE1D4B1D4A3F211D4800F015
:10370000D5FE002CE8D0FFF7CDFD002302930193F6
:10371000194B0093049A059BFFF738FE002812DA34
:10372000DAE7002300E00023002BD5D1134B1A6801
:10373000EFF3108172B61368002BFCD0BFF35F8FDC
:103740000E4805F017FE0499059A0D4B5B6A9A42E4
:10375000E9D80B48806A884203D29A42E1D001231B
:10376000E2E70123E0E7C04644BF0110A4BB01101B
:10377000ACBF0110C0BB01102D2C001068E300206D
:103780000040054070B504000D0000F0F3F80200A1
:103790000B1E0ADB200029008018594100290ADB92
:1037A00000290CDBFFF776FF70BD084B084A3F216C
:1037B000084800F07BFE012040420749F0E7034B38
:1037C000034A3F21034800F071FEC046A4BB01102C
:1037D000ACBF0110C0BB0110FFFFFF7F10B5FA2284
:1037E00092000023002102F0E5FBFFF7CBFF10BDA4
:1037F00070B584B005000C00EFF30583002B1ED1DB
:10380000FFF750FD002302930193224B00932A00FF
:103810002300FFF7BBFD061E23DD20BFFFF742FD9F
:103820003100FFF7B9FE1C4B5B6A9C422DD81A4A47
:10383000926AAA422CD29C4225D0012026E0164B47
:103840005B6A994209D8144A926A824207D2994225
:1038500001D001201AE0002018E0002016E001202D
:1038600014E00D4B5B6A9C4209D80B4A926AAA424B
:1038700007D29C4201D0012008E0002006E0002091
:1038800004E0012002E0002000E0002004B070BD50
:103890000120FBE72D2C00100040054070B5EFF330
:1038A00005801038EFF3108C72B61A4B1B68002B92
:1038B000FBD0BFF35F8F01221300834016494B6397
:1038C00016490B60164909780C00C440224214D0F6
:1038D000114A546A8200134D5259944206D3820011
:1038E000114C125999430E4B197007E00A4A031DF7
:1038F0009B0099589950002200E00022BFF35F8F8F
:10390000044B002119608CF31088002A00D09047E6
:1039100070BDC046280100D0004005403C70054005
:10392000D4E5022084E30020F81E002010B5010039
:10393000024A0348FEF700FD10BDC04690C00110CA
:10394000C2E5022010B501000148FEF737FD10BDA9
:10395000C2E5022000B583B00100044B00930323AD
:1039600000220348FEF701FD03B000BDB4C0011002
:10397000C2E50220044B5B6A034A906A1900536A4D
:103980009942F9D17047C04600400540084B5B6A38
:1039900001E0074B5B6A8B42FBD301E0044B5B6A9F
:1039A0008B4203D1024B9B6A8342F7D37047C046D8
:1039B0000040054070B504000D00EFF3108672B6AC
:1039C0001B4B1B68002BFBD0BFF35F8F002D1CD05F
:1039D0002000FEF7D5FD174B83420BD019002000C5
:1039E000FEF7E8FD01212000FEF7BAFD0123A34008
:1039F000114A1360A400114BE550BFF35F8F0C4BCD
:103A000000221A6086F3108870BDA2000B4B0021C3
:103A1000D1500122A2400A490B7893430B7005490B
:103A20002000FEF70BFF00212000FEF799FDE4E7E0
:103A3000280100D09D38001038600540F81E002095
:103A4000D4E50220F0B5DE4600B584B004001500D0
:103A500001921E000293FFF78DFF03958E4202D85C
:103A60004ED185424CD9EFF3108B72B6274B1B68B1
:103A7000002BFBD0BFF35F8F254A17780125A540A7
:103A8000EBB23B431370234B5D63221D92000199FF
:103A9000D150A2002049029850501B6A2B4212D1EB
:103AA0001C4B1B6C2B4208D00020BFF35F8F174BC1
:103AB00000221A608BF3108823E0184B184AC521A6
:103AC000184800F0F3FCFFF755FF8E4214D802D1DE
:103AD000039B834210D80E4B1B78BB420ED00D4B7C
:103AE0001D625D631F2004400123A3400E4A136042
:103AF000074B1F701E38D8E70020D6E70120D4E717
:103B0000012004B080BCBB46F0BDC046280100D0F7
:103B1000D4E502200040054084E30020C8C0011025
:103B200040C10110ECC0011080E200E0EFF3108C06
:103B300072B60B4B1B68002BFBD0BFF35F8F0123CA
:103B40008340084A136208490A789A430A70BFF30F
:103B50005F8F034B00221A608CF310887047C046B9
:103B6000280100D000400540D4E50220EFF3108C7E
:103B700072B60B4B1B68002BFBD0BFF35F8F01238A
:103B80008340DAB20749087802430A70BFF35F8FB7
:103B9000034A002111608CF31088034A13607047B8
:103BA000280100D0D4E502203C60054010B5002972
:103BB0001ED0037B99421BD84B005B18033B046863
:103BC000A4466344002919D0002A1DD0914221D077
:103BD000002A25D0047BA24222D804685000801815
:103BE000033820188170197800291FD11A7010BD70
:103BF000104B114A6821114800F058FC104B114A33
:103C00006F310E4800F052FC0F4B0E4A70210B48EA
:103C100000F04CFC0D4B0B4A7121084800F046FCAB
:103C2000044B054A6821054800F040FC41701A70B9
:103C3000DDE7C04664BD01105CC2011080BD01100B
:103C4000E0BD011048C20110ECBD0110F8BD01102B
:103C500070B506000D001400002914D0002A14D0FD
:103C6000806873689847002806D022002900300039
:103C7000FFF79CFF280007E02A0021003000FFF733
:103C800095FF200000E0100070BD0800FCE7000078
:103C900010B50023437301338373037BC373012384
:103CA000027B9A4214D9002B0CD0027B934209D894
:103CB0005A00D218033A01688C4662440133DBB2E1
:103CC0005370EDE70B4B0C4A68210C4800F0EEFBFB
:103CD000002A09D0924207D8016853009A18033A83
:103CE0008A180023537010BD024B034A6821034811
:103CF00000F0DCFB64BD01105CC2011080BD01104E
:103D000010B5017342608360FFF7C2FF10BDF8B5C4
:103D100005000E0017001021012002F08DFA0400AA
:103D20000321280002F088FA20603B0032002900BD
:103D30002000FFF7E5FF2000F8BD10B50400006883
:103D400002F09AFA200002F097FA10BD70B5040054
:103D5000081E00D170BD002934D0237B994231D890
:103D60004B005B18033B2268944663445A78002A50
:103D7000F0D02DD0237B9A422AD853009B18033BC6
:103D800021688C4663445D7800215970002825D055
:103D9000237B984222D843001B18033B21688C46A2
:103DA00063440021597001002000FFF751FF060015
:103DB00029002000FFF7CAFF020031002000FFF7B2
:103DC00047FFC7E7084B094A6821094800F06EFB26
:103DD000054B064A6821064800F068FB024B034A7F
:103DE0006821034800F062FB64BD01105CC2011051
:103DF00080BD011070B505000C00160000292FD001
:103E000034D0037B994231D84B005B18033B0268E6
:103E1000944663445A78002A2ED19A78002A31D1E8
:103E20001978FFF793FF0300002E0AD0EA7B002ADF
:103E30002ED1AA7B002A03D1EA7B002A3BD1AC73A6
:103E4000EC73002B3DD1002C4FD02B7B9C424CD8E7
:103E50002B6861000C19033C1C190023637070BDB2
:103E6000254B264A3821264800F020FB254B264AC0
:103E70006821264800F01AFB254B204A3A212048A9
:103E800000F014FB234B1D4A3B211D4800F00EFBA4
:103E9000002A0AD0297B8A4207D851008A18033A9F
:103EA00029688C4662445470C3E7164B164A682151
:103EB000164800F0FBFA184B104A4221104800F057
:103EC000F5FA002B0BD02A7B934208D843001B182D
:103ED000033B2A689446634400229A70B3E7094B77
:103EE000094A6821094800F0E1FA064B064A6821B0
:103EF000064800F0DBFAC0465CC1011034C2011074
:103F000064C1011064BD01105CC2011080BD0110CC
:103F1000B0C10110D8C10110BCBE011070B50400C1
:103F20000A00457B2900FFF765FF6073280070BD1C
:103F300070B50400002967D0437B8B420ED0002966
:103F400011D0037B99420ED84B005B18033B0268EB
:103F5000D0188378002B0CD1002056E00121FFF708
:103F6000DDFF012051E0294B294A6821294800F052
:103F70009DFA002B20D0227B93421DD85A00D318E3
:103F8000033B2268D2182568EB5C8B421AD0002BC9
:103F90001BD0227B934218D85A00D318033B2268C7
:103FA000D21853788B4216D0002BF0D11A4B1B4AF3
:103FB0006B211B4800F07AFA144B154A682115480A
:103FC00000F074FA4378137007E0104B104A682130
:103FD000104800F06BFA43785370002383704370ED
:103FE00001222000FFF706FF0200617B814205D01D
:103FF0002000FFF72DFE6073012006E0094B074A01
:104000007121074800F052FA002070BD64BD011014
:104010005CC2011080BD011080BA01101CC20110E9
:1040200064C10110FCC10110F8B5DE4657464E468A
:104030004546E0B505000F0092460A9A934250D3D8
:104040001A0E91461E020A9A00233000494601F0DA
:1040500051FC80466C006419A400304B9C466444BB
:104060006368834200D260602B1FDBB29B46012B4A
:104070003DD9C0239B012343802212011A60AB006B
:10408000274A9958002907D0506901F0F5FB431CD5
:104090005800C0180338FDD253465A0123685A40CD
:1040A000E0231A4080235B0123431A605A46012A09
:1040B00028D980239B012343802212011A604346A2
:1040C0006360424600233000494601F013FCAD0016
:1040D000134B58510120F0BCBB46B246A946A0463E
:1040E000F8BD104B104A3321104800F0DFF9012FC2
:1040F000BFD1C0239B01234303221A60A368DB07BF
:10410000FCD5C9E72168794003220A401A60A268F9
:104110000123BB401342FAD0CBE7C04600800040E9
:104120003C21002068C20110D4C201107CC20110E1
:1041300030B583B00C2000F011F9FEF7DDF800284F
:104140000DD0002304E099002D4A2E4888500133F9
:10415000092BF8D92A4B2C4A5A6203B030BD2B4B9D
:1041600000229A6700F06CF9294B01221A60274B54
:104170005B6C012BFBD1274B03221A60234B9B6BFB
:10418000012BFBD1013300930433234A012123483F
:1041900000F054F805230093214A0121214800F042
:1041A0004DF8214B0093002202210420FFF73CFF31
:1041B0001E4D00952B00002201210520FFF734FF42
:1041C000104C00942300002200210720FFF72CFF51
:1041D00000942300002200210820FFF725FF0A4B4E
:1041E00000932300002200210920FFF71DFF009506
:1041F0002B00002200210620FFF716FFADE7C04686
:104200003C210020006CDC021BB700000080004055
:104210003CB0004030B00040002F685900800240A0
:10422000008C864700C00240001BB700405973074E
:104230008000014BC05870473C210020F0B5C646B5
:1042400000B504000E0017001D00374801F014FBF4
:104250008046364BFA18364B9A4239D8010038005E
:1042600001F00AFB0200103A98235B009A4235D80D
:104270006B1E062B38D8069B013B062B34D83F0912
:10428000474537D32D04069B1A0315432368002B9B
:1042900036DB284B9C4244D080225201264B1A60C8
:1042A000264B1A60264B9B6811009943FAD1266071
:1042B000A060231DC02292011A43212313602368AA
:1042C000002BFCDAE5600823136080BCB846F0BD23
:1042D0001C4B1D4A11211D4800F0E8F81C4B1A4ADE
:1042E00019211A4800F0E2F81A4B174A1C21174806
:1042F00000F0DCF8184B144A2321144800F0D6F8DB
:1043000022683F231340B342C3D1A3681B051B0D92
:104310008342BED1E368EE22D2021340AB42B8D151
:10432000D3E780229201B9E7001BB70080E84BD3A6
:1043300080F8A93200C0024000E0004000F00040D8
:1043400000C00040E4C2011018C4011044C30110B1
:1043500094C30110B0C30110FCC3011080239B0063
:104360000343014AD362704700800540024B1A683C
:10437000024B5A607047C046A434002000800540BC
:1043800010B50200164B8020C0051860154B16486A
:10439000186000290AD0154BE021C9041960002AD1
:1043A00009D1124B802212061A6010BD0C4BE0217D
:1043B000C9041960F3E753019B1A980080180001A3
:1043C0000B4B186080235B04984202D3084B094AC8
:1043D0001A60FFF7CBFF054B8022D2051A60E4E795
:1043E00000B0054008200140FCFF010000A005408E
:1043F000A4340020FFFFFF0010B5030010000C4A9A
:104400008024E4051460002B0DD001221343094AD7
:10441000094CD461094C5C401462516293620021E2
:10442000FFF7AEFF10BD034B0022DA61F7E7C0468D
:1044300000B0054000800540D3C007B02D3FF84FC5
:10444000064BAA2212011A602F22DA60044B054A99
:104450001A60024B5B68002BFBDA70470040024099
:104460000060024000B0FA0000BEFDE703000A4A07
:104470001268002A08D0084A1068C318074A9A42EE
:1044800006D3054A13607047034A05491160F2E7F5
:1044900001204042F7E7C0465C30002000000420C5
:1044A000D8E5022010B5FFF7DFFF000010B582B09D
:1044B0000C001900002A0CD0084B002A0BD00192E6
:1044C000009323000200064802F05AF80120FFF78B
:1044D000CBFF044BF1E7034AF1E7C04624C40110C7
:1044E00034C4011024B0011070B52B4B2B4A1A6054
:1044F0002B4B2C4A1A602C4B9A682A4B9343FAD1C7
:104500002A4C01E008CC9847294B9C42FAD3FFF78C
:104510000FFE234B274A1A60234B9B68DB43DB01CA
:10452000FAD1254B40229A675A671A67DA66234CFC
:1045300009E0234B234A87212348FFF7B7FF2000D8
:10454000FEF722FB0834214B9C4209D22368002B42
:10455000F5D0012BEDD12000FEF724FB0C34F2E75F
:104560001B4CA1681B4DC022280001F0A3FEA560D2
:10457000EFF30583002B00D000BEFDF73FFFFEF7F1
:10458000BFFAFEF76FFE144C01E008CC9847134BBE
:104590009C42FAD370BDC04600E00040BFCDFBFE98
:1045A00000F00040FE7F3C0000C000407818002072
:1045B00088180020FFFFFF0100F00140681800206C
:1045C00064C40110F8C4011084C4011078180020DC
:1045D00000ED00E000000020881800209418002062
:1045E0000FB400B583B0084801F09AFF049B002B7C
:1045F00007D005A90191180001F0A2FF034801F0BE
:104600008FFF0120FFF730FFD8C40110948B0510F5
:1046100010B50148FFF7E4FFE8C401109A4200D248
:1046200088547047704710B5002802D00B6849685D
:10463000984710BD0100002007E083001B185B00B5
:10464000501C08601078C01830380A681378303B66
:10465000DBB2092BF1D97047F0B5DE4657464E461E
:104660004546E0B583B093461F000C9B9A460D9CCF
:104670000E9B99460F9B9B0703D0B8460F00060080
:1046800022E00192A34688464E46B9460700B4424E
:1046900007D2551C4B4641462020B84701342A001A
:1046A000F5E73D004F465C46019B9B46B1464646BA
:1046B000B84637002E0007E0013C551C5346185DF4
:1046C00043463900B0472A00002CF5D135003E00A2
:1046D00047460F9B9B0707D4100003B0F0BCBB46B6
:1046E000B246A946A046F0BDB0464E46B9462F0098
:1046F0005D46531BB342EFD2541C4B46414620202B
:10470000B8472200F5E7F0B5CE46474680B585B0FC
:10471000944698460C9D0D9C0EAB1B789946109ABA
:10472000119B129EB7071CD4002B0CD0F7070AD59B
:104730004F46002F02D10C37374204D0013B02E034
:1047400030272F550134944201D21F2CF8D9F70796
:1047500007D59C4205D21F2C03D830272F55013492
:10476000F5E7F70615D5770505D4002C03D094425C
:1047700024D09C4222D00F9A102A2BD00F9A102AB4
:1047800030D00F9A022A35D01F2C02D830222A5559
:1047900001341F2C05D84A46002A31D02D222A5533
:1047A0000134039602930194009543466246FFF755
:1047B00053FF05B0C0BCB946B046F0BD621E012C27
:1047C00006D00F9F102F01D01400D4E7023CD2E78F
:1047D0001400D0E7B206D1D41F2CCFD878222A55A6
:1047E0000134D1E7B206CCD51F2CCAD858222A559D
:1047F0000134C9E71F2CC7D860322A550134C3E7FA
:10480000720703D52B222A550134CAE73207C8D5CF
:1048100020222A550134C4E7F0B5DE4657464E46FD
:104820004546E0B593B081468A46089209931CAB91
:1048300010CB1B789B461E9D219B9846002C03D1D4
:10484000102342469A4390468023DB0046461E4092
:1048500042461A4212D0002C22D000260EE03033FD
:10486000D9B2771C0AAB99552900200001F004F851
:10487000AC4216D31F2F14D83E000400290020009C
:1048800000F0FAFFCBB2092BE9D94246920605D5D2
:104890004121C918C9B20A39C9B2E2E76121F8E772
:1048A000270043460693209B05931F9B0493039583
:1048B0005B46029301970AAB0093099B089A514605
:1048C0004846FFF720FF13B0F0BCBB46B246A946EE
:1048D000A046F0BDF0B5DE4657464E464546E0B52B
:1048E00095B0089009910A920B931E9E1F9C20ABD5
:1048F0001B789B46229B9946239D269B9A46330014
:10490000234303D1103352469A4392468023DB005F
:1049100057461F4052461A4219D0330023432DD028
:10492000002714E03033DAB27B1C98460CABDA5522
:104930004A462B003000210000F0DCFFA5421FD8C2
:1049400019D043461F2B1BD8474606000C004A4689
:104950002B003000210000F0CDFFD3B2092BE1D9AC
:104960005246920605D54122D218D2B20A3AD2B2A4
:10497000DAE76122F8E7B145E3D901E00023984680
:1049800053460693259B0593249B04934B46039320
:104990005B460293434601930CAB00930B9B0A9A30
:1049A00009990898FFF7AFFE15B0F0BCBB46B246B8
:1049B000A946A046F0BD0000F0B5DE4657464E467B
:1049C0004546E0B591B083468A460C9298461A9CBB
:1049D00008941B9D099522002B002000290001F05E
:1049E00004FA002800D0E5E001225242D74B200013
:1049F000290001F0F5F9002800D0DBE00122524245
:104A0000D34B2000290001F0D5F9002800D0D1E0D7
:104A100000220023089E3000099D290001F0CAF9F8
:104A2000002800D0DDE008980999069007918023BE
:104A3000DB001E9A1A400D921E9A1A4201D10623DB
:104A40001C930698079904000D000A000600024313
:104A500000D1D1E0080D4005400DBE4CA446604495
:104A60000A03120BBC4B13431F0001F0D1F9BB4AE0
:104A7000BB4B01F060F9BB4ABB4B01F03DF90400B0
:104A80000D000022B94B3000390001F030F9B84A6E
:104A9000B84B01F050F902000B002000290001F092
:104AA0002BF901F0CDF9814601F0B2F904000D00B7
:104AB000B14AB24B01F03FF90022B14B01F01CF9B1
:104AC00001F0BEF90600AF4AAF4B2000290001F00B
:104AD00032F904000D00300001F09AF9AB4AAC4BFA
:104AE00001F029F902000B002000290001F0FFF875
:104AF00004000D0002000B0001F01DF90A900B915B
:104B0000A44BF31800261F0522002B0020002900CB
:104B100001F0F2F80E900F9122002B00002080216E
:104B2000C90501F0E4F804000D0000229A4B0A9830
:104B30000B9901F0E6F80022984B01F0DDF8020035
:104B40000B000A980B9901F0DCF80022944B01F05D
:104B5000D3F802000B000A980B9901F0D2F802007A
:104B60000B002000290001F0C7F802000B000E988E
:104B70000F9901F0C6F80022774B01F0BDF8320022
:104B80003B0001F0D8F806000F0004000D00069A63
:104B9000079B01F025F9002830D001235B429C4699
:104BA000E14400227D4B3000390001F0AAF80400F6
:104BB0000D0023E01E9B04931D9B03931C9B0293FB
:104BC000089A099B0092019343460C9A5146584615
:104BD00000F0FCF811B0F0BCBB46B246A946A046B6
:104BE000F0BD0023002406930794069680231B063D
:104BF0009C46654407951AE7002399464B46633364
:104C0000C62B1ED804261E9B1B0526D52B0023432E
:104C10000FD0644A644B0698079901F0D9F8002830
:104C200079D00022614B0698079901F0C3F800285B
:104C300071D01C9B4B4506DD4A46981A431E1C93B7
:104C400003E00526DFE700231C938023DB001E9A88
:104C50001A431E920026002399461D9B9E4264D251
:104C60009F1B02231E9A1A400A921E9A134202D0D8
:104C7000002E00D000274B46002B07D022002B002F
:104C80000698079901F03DF806900791002200234D
:104C90000898099901F08EF8002848D1444B1E9AD3
:104CA0001340049303971C9B0293069B079C00935D
:104CB000019443460C9A5146584600F087F8002E5E
:104CC00000D187E71E9B9B063DD54525441C4346E6
:104CD000020051462800D8474B46DA179B1853402C
:104CE00005220592013E0496002203920A320292A6
:104CF0004A46D00F01900093434622005146584641
:104D0000FFF78AFD0A9B002B00D163E702005F4694
:104D10000C9E1D9D54E01C9B002B9ED00D9B002BD8
:104D20009BD01C9B013B1C9397E7002799E7069CAF
:104D3000079D2200290080200006844661440B0064
:104D400006920793AAE76525C0E7C046FFFFEF7FFD
:104D5000FFFFEFFF01FCFFFF0000F03FFB799F50DA
:104D60001344D33FB3C8608B288AC63F0000F83F86
:104D700061436F63A787D23F71A379094F930A40BC
:104D80000000E03F1655B5BBB16B0240EF39FAFEAB
:104D9000422EE63FFF03000000002C4000002440AC
:104DA000000018402D431CEBE2361A3F80842E4150
:104DB000FFF7FFFF541C434651462020B84722000E
:104DC000931BAB42F6D3100004E7C046F0B5DE46B5
:104DD00057464E464546E0B595B006900791934636
:104DE0009946209F1E9A1F9B1000190000F0FDFF9E
:104DF000002831D101225242BF4B1E981F9900F06A
:104E0000D9FF002837D101225242BC4B1E981F996E
:104E100000F0E6FF00283DD10022B94B1E981F99F3
:104E200000F0DEFF002850D10022B64B1E981F99DB
:104E300000F0C0FF002848D1002200231E981F99CF
:104E400000F0B8FF002850D100239846229B5B0554
:104E500000D4B6E0002458E0229B0393219B0293E8
:104E600003230193A84B00934B465A460799069893
:104E7000FFF7F2FB0EE1229B0393219B0293042395
:104E80000193A24B00934B465A4607990698FFF7A9
:104E9000E3FBFFE00423229A1A4022990B4210D030
:104EA0009B4B002A0FD00422229903912199029151
:104EB000019200934B465A4607990698FFF7CCFBA0
:104EC000E8E0944BEDE70322EEE7229B0493219B5D
:104ED000039302971E9B1F9C009301944B465A46D6
:104EE00007990698FFF768FDD4E01E9A1F9B0020E3
:104EF000002100F0FCFE1E901F9101239846A5E7BB
:104F00000CAB30221A55013F01341F2C01D8092F58
:104F1000F6D81E981F9900F093FF050000F078FF67
:104F200002000B001E981F9900F0E1FEFA007A4B78
:104F30009B181A685B680A920B9300F0FCFE0890BD
:104F4000099100F0A1FF060000F05EFF02000B00D7
:104F50000898099900F0CBFE0890099100226F4B48
:104F600000F03EFF00282ED00136300000F04CFF4C
:104F700002000B000A980B9900F022FF002801D0D4
:104F800001350026002F2CD1280000F041FF02003F
:104F90000B001E981F9900F0AAFE06000F000022C9
:104FA0005E4B00F007FF002846D100225B4B30002B
:104FB000390000F015FF00283ED1EB073CD5013544
:104FC0003AE0062746E70022544B0898099900F07A
:104FD000F1FE0028D6D1002E01D0F307D2D501363C
:104FE000D0E7AA461F2C11D8013F0A21300000F05B
:104FF00043FC651C30310CAB19550A21300000F020
:105000003BFC092E0ED906002C00EBE755461F2C61
:105010000CD87B1E002F09D00CAA302111551F007F
:105020000134F4E72B0055461C00F0E71F2C03D891
:105030000CAB2E221A5501341F2C10D80A2128003F
:1050400000F0F2FB661C30310CAB19550A21280028
:1050500000F0EAFB051E01D03400EDE73400032325
:10506000229A1340012B1CD01F2C06D84346002B3C
:1050700032D00CAB2D221A550134229B0393219B75
:10508000029301940CAB00934B465A46079906983D
:10509000FFF7E2FA15B0F0BCBB46B246A946A046FF
:1050A000F0BD219B002B13D04346002B02D10C33C3
:1050B00013420FD0219B013B2193190003E00CAB5D
:1050C00030221A5501348C42CED21F2CF7D9CBE7AF
:1050D0002199F8E72199F6E7229B5B0704D50CABF1
:1050E0002B221A550134C8E7229B1B07C5D50CABF0
:1050F00020221A550134C0E7FFFFEFFFFFFFEF7FCB
:1051000065CDCD4165CDCDC114C5011018C50110C7
:105110000CC5011008C5011000C701100000E03FD8
:10512000F0B5DE4657464E464546E0B593B082465A
:105130008B4690461193002900D1EBE2002755469B
:10514000119B1878002800D1E7E2252809D07C1CA3
:1051500043463A005946A847119B01331193270053
:10516000EEE7013311930024119A11780B00203BD4
:10517000D8B2102803D88300D048C3589F460B00EC
:10518000303BDBB2092B2CD92A292FD000230A93DC
:10519000119B1A782E2A39D000239A46119A137837
:1051A000683BD9B2122976D88B00C549CB589F46A7
:1051B00001231C4301321192D6E702231C43013222
:1051C0001192D1E704231C4301321192CCE708234A
:1051D0001C4301321192C7E710231C430132119284
:1051E000C2E711A8FFF726FA0A90D1E71C9B1A1D07
:1051F0001C921868002804DB0A90119B013311935C
:10520000C6E702231C4343420A93F6E78022D200FA
:1052100014435A1C11925A781300303BDBB2092B0D
:1052200004D92A2A07D000239A46B7E711A8FFF726
:1052300001FA8246B2E71C9B1A1D1C9218680028CE
:1052400004DB8246119B01331193A7E70020F8E7A6
:1052500080235B002343511C119152786C2A01D0AA
:105260001C0018E0C0239B001C430131119112E087
:1052700080232343511C11915278682A01D01C00CD
:1052800009E0C0231C430131119104E080235B003D
:105290001C4301321192119B18780300253BDAB2AE
:1052A000532A00D92CE29300864AD3589F46802384
:1052B0009B001C4301321192EDE780235B001C43ED
:1052C00001321192E7E7782809D0582838D06F28A2
:1052D00038D0622838D010239C430A2600E01026DC
:1052E000582833D0692803D0642801D00C22944375
:1052F000630501D50122944369282AD0642828D067
:10530000A30500D59FE0E30500D5B8E0630600D40F
:10531000CAE01C9A111D1C911168FF220A400594D5
:105320000A9B049353460393029600230193009231
:1053300043463A0059462800FFF76EFA070027E077
:105340001026CDE70826CBE70226C9E72022144322
:10535000C8E7A30520D4E30550D4630666D51C9A9C
:10536000111D1C911168FF220A40D317D118594012
:1053700005940A9B0493534603930296D20F01921D
:10538000009143463A0059462800FFF745FA0700C6
:10539000119B01331193D3E61C9BDA1D07218A432D
:1053A000110008311C91116853689C46DB170C935F
:1053B0000D930C9A0D9B100048400E90624653408E
:1053C0000F930E980F990C9A0D9B801A99410E908D
:1053D0000F9108940A9B0793534606930496002363
:1053E00005936346DA0F02920090019143463A001A
:1053F00059462800FFF76EFA0700C9E71C9A111DED
:105400001C911268D317D118594005940A9B049334
:10541000534603930296D20F0192009143463A00FD
:1054200059462800FFF7F8F90700B1E7230605D52C
:105430001C9A111D1C910023D25E96E71C9A111D27
:105440001C91126891E71C9BDA1D07218A43110009
:1054500008311C9108940A9B0793534606930496BF
:105460000023059302931368546800930194434604
:105470003A0059462800FFF72DFA070088E71C9AE2
:10548000111D1C9105940A9B0493534603930296A5
:10549000002301931368009343463A0059462800BD
:1054A000FFF7BAF9070073E723060DD51C9A111D03
:1054B0001C9112681204120C31E7C04620C501107D
:1054C00064C50110B0C501101C9A111D1C91126811
:1054D00025E746281AD01C9B0733072293431A005E
:1054E00008321C9204940A9A0392524602925C6813
:1054F0001B680093019443463A0059462800FFF781
:1055000065FC0700119B0133119319E620231C430E
:10551000E1E7672801D0472802D180231B011C4303
:10552000452801D0472801D120231C431C9B073369
:10553000072293431A0008321C9204940A9A039299
:10554000524602925C681B680093019443463A00FD
:1055500059462800FFF730FA0700119B01331193D9
:10556000EEE502231A002240924623421FD0012476
:105570001C9B1A1D1C927A1C9146187843463A00CF
:105580005946A8475346002B16D1119B013311935E
:105590004F46D5E5561C434659462020B8472300C0
:1055A00032005C1C9D42F5D83D001700E0E7012366
:1055B0003A002F000A9DF4E74A46A9460A9D06E0F4
:1055C000571C434659462020C84734003A00661C01
:1055D000A542F5D84D469146D7E71C9B1A1D1C9253
:1055E0001B6899465346002B00D1013B4E4601E013
:1055F000013613003278002A02D05A1E002BF7D150
:105600004B46F21A10928023DB0026001E401C42FB
:1056100003D0524501D95346109302231A00224069
:105620000B92234205D03A0037004C46A946554616
:1056300020E03A00109B5F46B3462E0006E0551C62
:10564000434639002020B04723002A005C1C0A99F9
:105650009942F4D835005E46BB46109437004C465C
:10566000A946554606E01D000134561C43465946DE
:10567000C84732002078002804D0002FF4D06B1ED9
:10568000002DF0D117004D460B9B002B03D1119B31
:105690000133119354E50A9F109B06E0561C4346C4
:1056A00059462020A847230032005C1C9F42F5D8B1
:1056B0001700ECE721231C431C9B1A1D1C921B683E
:1056C00000930594082304935346039310230293F5
:1056D0000023019343463A0059462800FFF79CF8FF
:1056E0000700119B013311932AE57C1C43463A00C5
:1056F00059462520A847119B0133119327001FE528
:105700007C1C43463A005946A847119B013311932C
:10571000270015E50A4B9A4610E5AA46474502D3ED
:1057200043465A1E00E03A00434659460020D047FF
:10573000380013B0F0BCBB46B246A946A046F0BD47
:10574000254600100EB410B585B0010007AC08CC9A
:1057500003940122009452420348FFF7E1FC05B094
:1057600010BC08BC03B018471D4600100CB410B59F
:1057700084B00A0006AC08CC0394009401000448ED
:10578000FFF7CEFC04B010BC08BC02B01847C046FE
:105790001D46001000B585B00290039101210093D1
:1057A00013004A4202A90248FFF7BAFC05B000BD47
:1057B0002746001001480421014B1847600F0020C4
:1057C000F1570010014B9B6818470000600F002044
:1057D00010B5010018231B8814221088984710BDAB
:1057E00010B5010018231B8816221088984710BD99
:1057F000F0B5C64600B507000E0000250123984607
:1058000000E00135B5420AD2AC003C192068FFF730
:10581000DFFF20600028F4D100239846F1E74046DE
:1058200080BCB846F0BD0000124A936F9B0815D2A9
:105830009066D166002905D0FFE7FFE7FFE7516FCB
:10584000106F704704B580210906C2175140002827
:1058500000D0C84315F054FB002104BDF0B5146E10
:10586000556E576F166FFFF7E3FF1466556657675F
:105870001667F0BD000000D0114A936F9B0813D249
:1058800010665166002905D0FFE7FFE7FFE7516F7B
:10589000106F704704B5002801D00020C04315F0F8
:1058A0002FFB002104BDC046F0B5146E556E576F36
:1058B000166FFFF7E5FF1466556657671667F0BD6C
:1058C000000000D094464A4A926F9208624601D284
:1058D00028E0C046F0B5464E346E756E776F366F71
:1058E00000F020F89446424A1466556657671667DA
:1058F0006246F0BD94463E4A926F9208624601D2DB
:1059000054E0C046F0B53A4E346E756E776F366F20
:1059100000F04CF89446364A146655665767166789
:105920006246F0BD002B24DB11D000293EDA00B521
:10593000C943404200D1013100F038F8C943404228
:1059400000D10131DB43524200D1013300BD002AB6
:10595000EBD1002801D1002905D00020C90FC907CB
:1059600001D1C043410800B515F0BAFA0022002366
:1059700000BD00B500290ADBDB43524200D10133F0
:1059800000F014F8C943404200D1013100BDC943C1
:10599000404200D10131DB43524200D1013300F0DB
:1059A00005F8DB43524200D1013300BD002923D169
:1059B000002B18D1002A0CD0BC460D4F38667A66F1
:1059C00000210023FFE7FFE7FFE77A6F386F6746A4
:1059D0007047002801D00748010000B515F080FA93
:1059E0000022002300BD02000B00002000217047B0
:1059F000000000D0FFFFFFFF002B00D0BFE0130C22
:105A000028D1002AE7D080B4114F39667A66FFE7C3
:105A1000FFE730B4040C7B6F396F1B0423433B66F4
:105A20007A66FFE7FFE7FFE7C04684B27B6F3D6F12
:105A30001B0423433B667A66FFE7FFE7C04600236B
:105A40002C042D0C7A6F386F00196941B0BC704777
:105A5000000000D0F0B594460025140E01D11202CA
:105A60000835140F01D112010435940F01D19200B1
:105A70000235D40F01D152000135D40B0134254F2A
:105A80007C66254C3C660E0C93B2FFE7FFE7FFE710
:105A90003C6F6643360C7703BE467343DF0B5B04F3
:105AA000C01AB941130C7343DB18C91ACE086643F8
:105AB000360CB64493B273431F0F1B01C01AB94191
:105AC000130C73431F0B1B05C01AB941860D8F02BF
:105AD0003E436643360C092D24DB520A7243801A7A
