:020000041000EA
:1000000000B5324B212058609868022188439860DF
:10001000D860186158612E4B002199600221596106
:100020000121F02299502B49196001219960352056
:1000300000F044F80222904214D00621196600F024
:1000400034F8196E01211966002018661A6600F04E
:100050002CF8196E196E196E052000F02FF8012189
:100060000842F9D1002199601B49196000215960AB
:100070001A491B48016001219960EB211966A021F2
:10008000196600F012F800219960164914480160C1
:100090000121996001BC002800D000471248134993
:1000A000086003C880F30888084703B5996A0420EC
:1000B0000142FBD001200142F8D103BD02B5186610
:1000C0001866FFF7F2FF186E186E02BD00000240BE
:1000D000000000180000070000035F00212200005C
:1000E000F4000018222000A00001001008ED00E03C
:1000F00000000000000000000000000074B24E7A12
:1001000000200420F7010010C3010010C5010010F9
:10011000C1010010C1010010C1010010C101001097
:10012000C1010010C1010010C1010010C701001081
:10013000C1010010C1010010C9010010CB01001065
:10014000CD010010CD010010CD010010CD01001037
:10015000CD010010CD010010CD010010CD01001027
:10016000CD010010CD010010CD010010CD01001017
:10017000CD010010CD010010CD010010CD01001007
:10018000CD010010CD010010CD010010CD010010F7
:10019000CD010010CD010010CD010010CD010010E7
:1001A000CD010010CD010010CD010010CD010010D7
:1001B000CD010010CD010010CD010010CD010010C7
:1001C00000BE00BE00BE00BE00BE00BEEFF3058054
:1001D000103800BEF2EB8871F891051018920510E6
:1001E0003402001090A31AE700201F49086006C8D7
:1001F00081F3088810471D48006800282FD10DA4FE
:100200000ECC002902D000F012F8F9E71849194A7B
:10021000002000E001C19142FCD1174988471749ED
:1002200088471749884700BEFDE701C901C29A42C5
:10023000FBD3704718920510C000002094140020D2
:10024000ECA505100000042000000420ECA505101A
:10025000001004200010042000000000704709482E
:1002600005F072FA0047000008ED00E0000000D041
:10027000B8140020D8E302201144001041030010FC
:10028000D14300105756000006005250ABB36053E4
:1002900078C1011006005250861C030288C101106B
:1002A000060052505422A29D9CC1011005005250DC
:1002B000DE65F468ECA50510F8B5C04606480749A8
:1002C000091A8B10C90FC91810B5491003D0044B77
:1002D000002B00D0984710BD9414002094140020E7
:1002E00000000000054B10B5002B03D00449054861
:1002F00000E000BFFFF7E2FF10BDC04600000000B5
:100300002CCC002030AC011070B505000C00054865
:100310002A00210006F018FAFA20400003F0CDFA76
:10032000F5E7C04630AC011010B5044806F0DCF922
:10033000FA20400003F0C1FAF7E7C0465CAC0110B8
:10034000F0B5CE46474680B583B006F009FA15F001
:1003500055FC01F03DFA01F0CDF800F0CDFC00F0C5
:10036000BBFE00F085FF00220421282009F010FDCB
:100370003A4B1860002202210A2009F009FD384B8F
:10038000186000220121012009F002FD354B1860A0
:1003900008F02EFF0100344B180006F0D5F9334B5E
:1003A000334A1A60334B1A6001F00AFA324B0025C7
:1003B0001D708024E40031493148324B01930323FE
:1003C00098460093002322000BF026FA8027BF00F6
:1003D0002D492E4801950126009600233A000BF086
:1003E0001BFA2B492B482C4B0193434600930023C7
:1003F00022000BF011FA294929482A4B01930223C4
:1004000099460093002322000BF006FA264927485C
:10041000274B01934B460093002322000BF0FCF97D
:10042000802224492448254B01934346009300230E
:1004300012010BF0F1F922492248019500960023A0
:1004400022000BF0E9F9204920480195009600238D
:100450003A000BF0E1F90BF03FFAFEE7201D002017
:100460008C2D0020C0E100206CAC0110E00D0020BC
:100470000000A041DC0D0020C40D002094AC011050
:10048000290B0010301600209CAC0110491E0010F2
:10049000A4AC0110CD18001028160020B0AC01103B
:1004A0004905001024160020BCAC01106911001091
:1004B0003C160020CCAC01106D080010181600206E
:1004C000D8AC0110610E0010E8AC0110390F00101B
:1004D00070B50500002913D1002431E0012100206E
:1004E00015F0ACFA64200BF05DFC0021002015F043
:1004F000A5FA64200BF056FC0134AC42EEDB70BD73
:100500000024FAE70121002015F098FA46200BF0AC
:1005100049FC0021002015F091FA46200BF042FC26
:100520000121002015F08AFA46200BF03BFC002147
:10053000002015F083FA962040000BF033FC0134C4
:10054000022CDFDDDBE70000F0B5C64600B582B067
:100550003B4806F0C9F83B4806F0C6F83A4C251C63
:10056000002741E06B46D87901F016FE45E00A20ED
:100570000BF018FC38E00021002001F045FC334866
:1005800006F0B2F802B080BCB846F0BD304E314B38
:10059000984646E0304E291C404605F0E6FC2F49BF
:1005A00005F0FDFC011C281C05F0E2FC051C211CCB
:1005B000301C05F0DAFC294905F0F1FC011C201C77
:1005C00005F0D6FC041C05F089FD86B2281C05F058
:1005D00085FD80B2310001F017FC0137312F00D9C1
:1005E00000270A200BF0DEFB1D4B186800226B462B
:1005F000D91D09F0E7FD0128B4D01A4B1B78002B58
:10060000B5D1194B1868002109F082FE0128B2D03B
:10061000164B1B78164B1B78002BB7D00D4E0C4B8E
:1006200098460D49301C05F0FFFC0028B2D1114955
:10063000301C05F0E3FC0028ADD00E4EABE7C04601
:10064000F0AC011010AD01100000604140AD011090
:10065000CDCC1C41999991410000A041CDCCCC3D1D
:10066000C0E10020B7E3022034160020B9E30220E5
:10067000BEE302200000A04010B5002305E00E4AB2
:100680009900002088500133DBB21C2BF7D90B4BAB
:100690001868002109F0FCFA002304E0084A002150
:1006A000D1540133DBB2312BF8D9064B00221A703A
:1006B000054806F019F810BD0CE20220201D0020AC
:1006C00020280020BDE3022068AD011010B5084BC2
:1006D0001B78013BDBB21B2B00D910BD054806F08F
:1006E00003F8FFF7C9FF024B00221A70F5E7C04676
:1006F000BCE3022080AD0110F0B504000D00002322
:100700009C4617E00133DBB2AA1B013A93420DDA93
:10071000990061180F685A1C9200A218106887424D
:10072000F0D90028EED008601760EBE76746013784
:10073000FBB29C4666466B1E9C4501DA0023E3E74C
:10074000F0BD41400023002000E00133082B06DC0F
:100750000A001A41D207F8D50130C0B2F5E7704758
:10076000F8B506001348310005F0EEFF0024FF271E
:10077000FF2500E001342B2C0ADC0F4B6200D15A1C
:100780003000FFF7DEFF8542F4D9E7B20500F1E75C
:10079000022D09D8084B7A00D15A08482A0005F0E2
:1007A000D3FF074BD85DF8BD0648290005F0CCFF04
:1007B0005E20F8E794AD0110F8080210A8AD011012
:1007C000CC080210C8AD011070B50500244C74228D
:1007D0000100200005F01AFE1D212000FFF78CFF0C
:1007E00000200026002301E00133DBB21C2B0BD8D4
:1007F0001B4A9C00A2581B4CA242F5D90428F3D8EE
:10080000B6180130C0B2EFE7002800D170BD01007A
:10081000300004F0EDFF060005F00BFC05F06AFC6B
:1008200002000B0005F024FA05F0EAFA04000E4875
:100830002200310005F088FF00200A2301E0013387
:10084000DBB2122B09D8400080B29A005259A24262
:10085000F5D30122104380B2F1E7FFF781FFD5E71E
:100860004CE1002010A4000000AE011030B585B0AE
:100870005B4C20000BF096FA5A4805F035FF002338
:1008800003935948594B00930023002221000BF099
:10089000D1FD574B186012E0554B1C680AF010FA56
:1008A000020000230093022120000BF0DDFD039ADB
:1008B000504B9A421FD9504B1B781D2B28D0012238
:1008C0004E4B1868524203A909F07CFC0128F6D16E
:1008D000494B1B78002BDFD1454B1C680AF0F0F91F
:1008E000020000230093012120000BF0BDFD444BCA
:1008F00001221A70DBE7404C2178424805F024FFC2
:1009000023785A1C2270404A9B0003999950D2E7E1
:10091000374B1868002400940023002203210BF0B9
:10092000A3FD354B1C703848FFF74EFF02005E28D0
:1009300043D0364B1B78312B3FD8591CC9B2334DAD
:100940002970334CE054334805F0FEFE2B78013B10
:10095000E15C0B236B4419702F4B1977CB0724D51F
:100960002E4805F0F1FE00F0A4FFFA2080000BF005
:1009700019FA2B4B1868002300220B21694409F057
:100980004FFA012815D10B236B441978254805F03F
:10099000DBFE254805F0D8FE64200BF003FAFFF7D4
:1009A0006BFE1D4B00221A7789E7204805F0CCFE2C
:1009B000D9E71F4805F0C8FEE5E71E4805F094FE9C
:1009C00064200BF0EFF9FFF757FE0D4B00221A7071
:1009D000FA2080000BF0E6F9FFF74EFE6FE7C04605
:1009E000B80B00002CAE011040AE0110CD06001077
:1009F000ACE2022020A10700BCE30220201D002061
:100A0000B9E3022054AE01100CE20220BDE3022043
:100A1000202800206CAE0110A42D002088AE01100B
:100A2000C0E1002010AF011050AF0110B4AE0110B2
:100A3000E0AE01107CAF011010B582B0140004AA22
:100A40001288002C05D018498A4204D020000DF0ED
:100A5000F9FA02B010BD1A68144B1B689A42F5D11E
:100A60006389072BF2D963685A780C2AEED16A465B
:100A7000D11CDB790B70002301930D4B1868002308
:100A800001AA09F093FA012807D0019B002BDDD0C1
:100A9000084B802252051A60D8E76B46D978064881
:100AA00005F052FEF1E7C0465B07000048E1002078
:100AB000C0E1002004ED00E0C0AF011010B500203F
:100AC00011F00CFF114B1860002810D01049114A8A
:100AD00011F0F4FC00280ED10F490C4B18680022CD
:100AE00011F0C0FE0D480B4905F02EFE10BD0C485C
:100AF00005F0FAFDFAE70B4805F0F6FD034C206817
:100B000011F0BCFE00232360F0E7C046CCE10220D8
:100B10009C180210D4070000390A00100CB0011014
:100B2000D8AF0110F4AF011010B500210A20FFF773
:100B3000CFFC1F480BF036F914F060FF1D491E482A
:100B40001E4B1F4A15F01DF8041E11D11D4805F05B
:100B5000CBFD092C10DC1C4B1C4A9B58002B0BD1E5
:100B600014F07CFFFA20400002F0A7FE0134F0E709
:100B7000174805F0B9FD10BD134B144A9B58002BC4
:100B800011D0144814F0BEFD0100134B180005F0FD
:100B9000DBFDFFF793FF114B114A1A60FA2080002A
:100BA0000BF000F9FAE70F4805F09EFDF1E7C046AB
:100BB000B80B000048B0011058B001101027000019
:100BC0000400400080B00110801E0020E8080000F2
:100BD00064B00110682700209CB0011048E100209B
:100BE0000A225D4EB8B00110F0B583B007000C00CA
:100BF00001921E00144B1B68002B01D0002901D16B
:100C000003B0F0BDA02289B2920036200DF058FA50
:100C1000051E11D040682200390005F0F7FB0A4B91
:100C200018683300019A290011F0A0FD011E07D1B8
:100C300028000DF007FAE3E7044805F055FDDFE76B
:100C4000034805F081FDF3E7CCE10220D8B00110A4
:100C500004B1011030B5C1B00A00CD1D6B461D7046
:100C60000C2369464B70083B8B700023CB7001212D
:100C70006C4621716371A3710100E01D05F0C6FB94
:100C80000C48290005F060FD002405E06B46195D65
:100C9000094805F059FD0134092CF7D90A2005F05F
:100CA000EFFC064A064B29006846FFF79DFF41B05E
:100CB00030BDC04624B1011048B1011048E1002008
:100CC0005B07000010B506280CD006D801280CD010
:100CD00004280DD100F060F810BD072808D100F0FD
:100CE00099FBF9E700F074F8F6E700F087FBF3E70B
:100CF00000F09AF9F0E7000010B5102001F0BEFBFB
:100D0000112001F0BBFBD024240680235B02636228
:100D100080239B02A3621F4B01220C21112001F0B2
:100D200051FB042001F0AAFB062001F0A7FB1023D1
:100D3000A3623033A36200220121042001F072FA81
:100D400000220121062001F06DFA01220821042071
:100D500001F028FB01220821062001F023FB0120DD
:100D600001F08CFB072001F089FB01220021072004
:100D700001F058FA0223A3627E33A36201220C2100
:100D8000072001F00FFB01220C21012001F00AFBDA
:100D900010BDC046C50C00100A4B9A6A0A4B1B686E
:100DA000002B0BD0084B1B68D31AFA2149008B4249
:100DB00006D306490B60044B1A6001E0024B1A602F
:100DC0007047C046004005400C3200206CCC00202B
:100DD0000C4B9A6A0C4B1B68002B0FD00A4B1B68FC
:100DE000D31AFA2149008B420AD308490B60064BFB
:100DF0001A60074A13680133136001E0024B1A605E
:100E00007047C046004005401032002070CC0020E2
:100E1000882D002010B50200913AFF3A0C4B9A42FF
:100E200012D805F006F90B4905F0B9F80A4905F0A2
:100E3000B6F8041C002105F0E7F8002806D1211CB3
:100E4000064805F098F810BD0020FCE70020FAE7FE
:100E5000F0949800BD3786350000A041B1E1A93E6D
:100E6000F0B5DE4657464E464546E0B5B1B039E0EE
:100E70004E262A4B1A6A90461A7A91460A215A5EE1
:100E800092461A69934698691B7B5BB2244F0E9376
:100E900005F030F90C900D91584605F02BF90A90A9
:100EA0000B910896534607934B460693404605F030
:100EB00021F904900591281C05F01CF9029003917A
:100EC000201C05F017F9009001913A00802110A82C
:100ED00004F008FC010010A8FFF7BCFEFA20800017
:100EE0000AF060FF0F4B186805F0A3F80E4905F0F3
:100EF00056F80E4905F053F8051C084E30600C4BAF
:100F00001868FFF787FF041C0A4B18607060367F73
:100F1000002EADD0202EACD14E26AAE7A42D002065
:100F200050B10110882D0020C1E7873C0000C84265
:100F300070CC00206C1E0020F0B5CE46474680B530
:100F400087B0134F3868FFF765FF041C114E3068F7
:100F5000FFF760FF81463B6898463568201C05F026
:100F6000C9F806000F000C4C0C4B1B680493484654
:100F700005F0C0F802900391009532003B00414615
:100F8000200005F0E1FBC8200AF00CFFD9E7C046BD
:100F90006CCC002070CC002078B10110882D00208E
:100FA00083001B189B000B488446634400290CD027
:100FB0001020824000290AD00749186842400A40A0
:100FC000802149010B431A6070470800F1E703498B
:100FD000F3E7C0460C0005400000FFFFFFFF0000E4
:100FE00010B5041C002105F009F8002807D10B49B1
:100FF000201C05F019F8002802D0084C00E000245D
:101000000649201C04F0B7FF054904F0C8FF054954
:1010100004F0AEFF05F062F880B210BD000034436A
:101020000000FA440000FA4300B583B0090705D573
:101030000C4B9A6A0C4B1A6003B000BD094B9A6ABC
:101040000A4B1A6000230193094B186801A909F0A3
:1010500041F8019B002BEFD0064B802252051A600D
:10106000EAE7C0460040054068CC002064CC002080
:101070003816002004ED00E070B5124C2068002105
:1010800009F046F9D0252D06802676026E610A20E9
:10109000002102F005FCAE612068642109F038F9F6
:1010A000012801D0084870BD084B1868084B1B6820
:1010B000C01A04F0BEFF074904F071FF002104F0DC
:1010C00057FFF0E73816002000C0794464CC0020B8
:1010D00068CC0020287E8C3C10B503220021012022
:1010E00008F056FE0F4C206003220021012008F07A
:1010F0004FFE0D4B18602368002B02D0002808D04B
:1011000010BD0A4805F0F0FAFA20400002F0D5FBC5
:10111000F7E7074805F0E8FAFA20400002F0CDFBB7
:10112000F7E7C0463816002034160020B0B1011091
:10113000DCB1011010B5041C094904F05FFF002860
:101140000CD00849201C04F06FFF002801D10020BA
:1011500005E0211C201C04F00BFF00E0002010BD66
:101160000000F041CDCCCC3D70B5314B186800216A
:1011700009F0CEF82F4B00221A602F480AF012FE19
:101180002E4805F0B1FA002539E000232C4E3375C6
:10119000201CFFF7CFFFB061FFF76EFF254B1860F3
:1011A0001868284904F030FF002817D0214B186830
:1011B00004F0A0FF02000B00234805F0C5FA002D43
:1011C0000ED11B4B186800230022002108F028FED6
:1011D00000F0EAFE013503E00123D7E7002D20D11E
:1011E0001A4B1888FA2292000023002104F0A0FE76
:1011F000FA229200002304F039FB0AF0D3FDFFF736
:101200003BFF041C0E4B1861114904F0F7FE002847
:10121000BBD01049201C04F007FF0028DCD10023BC
:10122000B4E7034B1868002109F072F80025D7E7EE
:1012300034160020F4280020B80B00000CB2011076
:10124000A42D00200000A04128B20110B80D0020FC
:101250000000F041CDCCCC3D10B5FFF7C1FE02003F
:10126000024B18680121FFF79BFE10BDF4E000203F
:1012700010B504210F2000F0BDFF0A4B07221A60B1
:10128000094B8932FA21C90099500C32074999500B
:10129000074B1A6801239343064A13600648FFF779
:1012A000DBFF10BDF4E0002000000540204E0000F0
:1012B0008C0005408C1005400000C84170B504004A
:1012C0000D004748FFF7C8FFC8200AF06BFDFFF785
:1012D000D3FE206004F00EFF02000B00414805F031
:1012E00033FA414E301CFFF7B7FF64200AF05AFD75
:1012F0003E48FFF7B1FFC8200AF054FDFFF7BCFEDF
:10130000286004F0F7FE02000B00394805F01CFAD3
:10131000301CFFF7A1FF64200AF044FD24682D680B
:101320003449201C04F06AFE002805D03149281CED
:1013300004F064FE002842D12F49281C04F018FE56
:10134000211C04F05BFE002805D02A49201C04F073
:1013500063FE002835D12849201C04F009FE291C11
:1013600004F04CFE002805D02249281C04F054FE4D
:10137000002828D1291C201C04F056FE002805D086
:101380001C49201C04F048FE00281FD1291C201CE9
:1013900004F034FE002805D01649281C04F03CFE59
:1013A000002815D11349201C04F036FE002812D164
:1013B0001049281C04F030FE00280ED170BD00201A
:1013C000FCE70120FAE701204042F7E70120F5E7BA
:1013D00001204042F2E70120F0E701204042EDE722
:1013E0000000A0C138B201100000C84100008C42CA
:1013F0004CB201100000A0410000A040D0231B0609
:101400005A68520801231340014A13707047C046BE
:10141000BEE3022010B582B00F4B9C6A0F4B1B68D5
:10142000002B03D0E31A0193632B03D80B4B1C60F2
:1014300002B010BD00230093094B186800236A46D0
:1014400001A908F0B3FD009B002BEFD0054B8022D3
:1014500052051A60EAE7C0460040054014320020F9
:10146000201D002004ED00E000B585B003AA054B67
:1014700013800548002300930233192118F054FD0E
:1014800005B000BD20570000200F002070B584B0CB
:1014900006000D0014000F226A44A823137014489C
:1014A000A73B0093192118F03FFD00281CDB1048D2
:1014B00000230093063302AA192118F041FD0028E9
:1014C00014DB02AB59781A7809020A433280D978C2
:1014D0009A7809020A432A805A791B791202134327
:1014E0002380012004B070BD0020FBE70020F9E755
:1014F000200F002030B587B01B4C1C49200018F08D
:10150000E7FC0321022000F075FE0321032000F018
:1015100071FE00220121022000F084FE0022012140
:10152000032000F07FFE05AAE023DB0113800025E5
:10153000009502231E21200018F0F6FC04AA0C4B93
:101540001380009502231E21200018F0EDFC03AA51
:101550000223138000951E21200018F0E5FCFFF700
:1015600083FF07B030BDC046200F0020801A060060
:1015700001200000F0B5DE4657464E464546E0B530
:1015800089B00400172202AB9C4662440323137007
:101590007148023B00931E2118F0C6FC002800DAB7
:1015A000CEE06D4800230093063306AA1E2118F0F2
:1015B000C7FC002800DACCE006AB1A78120212B29F
:1015C00059780A4390469E78360236B2DA78164346
:1015D0001F793F023FB25B791F430A2202AB9C4650
:1015E000624405A90E206044FFF750FF051E00D19C
:1015F000A7E00E2302AA944663440020185E04F07C
:101600001DFD039005AB0020185E04F017FD834616
:101610000A2302AA944663440020185E04F00EFDDB
:101620008146011C584604F095FD824659465846AD
:1016300004F0B5FC83464946484604F0B0FC011C62
:10164000584604F095FC04F05BFD011C039B8022CE
:10165000120694466344180004F07CFD814640461F
:1016600004F0ECFC3D4904F080FC8046380004F0B6
:10167000E5FC3B4904F079FC8346300004F0DEFCD5
:10168000384904F072FC071C80231B065B441E00D3
:10169000484604F03BFD311C04F081FC03905046A9
:1016A00004F046FD061C414604F079FC834648469A
:1016B00004F03EFD8146011C584604F070FC011CFC
:1016C000039804F055FC8346504604F01FFD824603
:1016D000391C04F064FC011C484604F060FC011C49
:1016E000584604F045FC81464146504604F057FCFC
:1016F0008046391C301C04F052FC011C404604F0AA
:1017000034FC494604F026FD04F0F4FC164A174B5D
:1017100004F0CDFA04F07CFB071C154E1549306827
:1017200004F03DFC80461449381C04F038FC011CD0
:10173000404604F01DFC3060104B1862206000E051
:101740000025280009B0F0BCBB46B246A946A04619
:10175000F0BD0025F5E7C046200F002000001A4329
:101760000000704100006643F8C1631ADCA54C40DC
:101770009C2D00206666663FCDCCCC3DA42D00207C
:1017800083001B189B000B488446634400290CD03F
:101790001020824000290AD00749186842400A40B8
:1017A000802149010B431A6070470800F1E70349A3
:1017B000F3E7C0460C0005400000FFFFFFFF0000FC
:1017C00010B50248FFF7D6FE10BDC04610E100205C
:1017D00010B5092000F052FE0B2000F04FFED02380
:1017E0001B06802292005A62802212015A62042152
:1017F000082000F0FFFC04210A2000F0FBFC084B4D
:10180000FF221A665A67074B1A6801231900914391
:10181000054A1160054A12689343054A136010BDDA
:101820000000054050000540501005406400054090
:101830006410054010B5FF2805DC0300FF3303DA10
:10184000FF20404200E0FF20FF2906DC0C000B00D7
:10185000FF3303DAFF24644200E0FF2400281CDA8F
:10186000D0231B06802292005A61C317C01858402B
:1018700082B200210420FFF783FF002C13DAD0236B
:101880001B06802212015A61E317E2185A4092B2F5
:1018900000210520FFF774FF10BDD0231B06802216
:1018A00092009A61E1E7D0231B06802212019A611F
:1018B000EAE710B5002200210420FFF761FF0022B3
:1018C00000210520FFF75CFF10BD0000F0B5DE46EB
:1018D00057464E464546E0B589B0664804F004FFD9
:1018E0003EE0654B1B78002B03D0644B1B78002B2C
:1018F00048D0624B1B78002B08D0614B1B78002B23
:1019000004D1604B00221A605F4B1A605F4B1B785A
:10191000002B00D144E2FE24A4055A4B5C49186810
:1019200004F03DFB211C04F03AFB04F0A9FB040089
:10193000584B1B78002B00D134E2FE25AD05524BED
:101940005349186804F02BFB291C04F028FB04F011
:1019500097FB01002000FFF76DFF19200AF022FA23
:101960004D4B1B78002BBCD132213220FFF762FF98
:1019700096200AF017FA484B01221A704748FFF7E1
:10198000F9FDEDE7464B1868FFF744FA061C454B96
:101990001868FFF73FFA071C434D4449286804F0D4
:1019A000FEFA041C4249301C04F0F9FA011C201C08
:1019B00004F0DEFA041C28603E4E3C49306804F016
:1019C000EEFA051C3A49381C04F0E9FA011C281CFF
:1019D00004F0CEFA051C30602A4B1B689B46181C8D
:1019E00004F04EFB04F02AFB334904F0D8FA061C3D
:1019F0000190254B1B689946181C04F041FB04F02C
:101A00001DFB2D4904F0CBFA071C0090291C301C4B
:101A100004F0ABFA061C0290211C381C04F0A5FA55
:101A2000804603902549301C04F0B9FA244F3968E8
:101A300004F09EFA061C38602049404604F0AFFAD4
:101A4000204F396804F094FA804638601E4B1F68B6
:101A50001E4B1B689A46391C301C04F0CFFA002834
:101A600036D15146301C04F0DFFA002831D05646FA
:101A70002FE0C04664B20110C40D0020B6E302207E
:101A8000B8E30220E00D0020DC0D0020D90D00207D
:101A900033332340D80D0020C0E3022010E10020A2
:101AA0006CCC002070CC002004E202209A99193FEF
:101AB000CCCCCC3E08E202200AD7A33BCDCCCC3C18
:101AC000EC310020F0310020BC0D0020C00D0020C2
:101AD0003E1CB54B1E60391C404604F08FFA0028AE
:101AE00007D15146404604F09FFA002800D1FDE09E
:101AF0005746AE4B1F60AE4B291C9A46186804F03F
:101B000034FAAC4904F04BFA0490AB4B211C9846D4
:101B1000186804F02AFAA74904F041FA05905346E0
:101B20001D6043461C60A54B1968029804F037FA03
:101B30008046A34B1968301C04F031FA011C404662
:101B400004F016FA061C9F4B1968049804F027FA53
:101B5000011C301C04F00CFA82469B4B1968039858
:101B600004F01DFA061C994B1968381C04F017FA8A
:101B7000011C301C04F0FCF9061C954B19680598F3
:101B800004F00DFA011C301C04F0F2F902909149A6
:101B9000584604F004FA83468E49484604F0FFF99B
:101BA00080468D4B1B680E2B05DC8B4A013313607E
:101BB000002398469B46894B1F688121C905381C24
:101BC00004F0D3F9061C8121C905381C04F0D0F9B2
:101BD000071C5946301C04F027FA002807D1594643
:101BE000381C04F00BFA002800D181E03E1C7C4B2D
:101BF0001F688121C905381C04F0B7F9834681218B
:101C0000C905381C04F0B4F9071C4146584604F0D5
:101C10000BFA002806D14146381C04F0EFF90028E1
:101C200068D0BB466D4B1E606D4B5A461A606D49BD
:101C3000504604F0B4F9311C04F09AF9061C6949C5
:101C4000029804F0ACF9594604F092F9071C291CDB
:101C5000201C04F08AF9644904F0A1F9041C311C29
:101C600004F086F9051C211C381C04F07EF9061CC2
:101C70000021009804F0D8F9002805D0002101982F
:101C800004F0D2F9002837D15849281C04F0CCF9C7
:101C9000002800D0554D5549301C04F0C5F90028E6
:101CA00000D0524E0021019804F0BEF9002804D063
:101CB0004D49281C18F06CFF051C0021009804F009
:101CC000B3F9002804D04849301C18F061FF061C05
:101CD0000021281C04F092F9002846D14449281C10
:101CE00004F0A2F9002841D0414D3FE0474600E70B
:101CF0005E467CE7C34695E707A8FFF73BFC3D4BF4
:101D00001968079804F031F9041C3B49201C04F0C1
:101D10008BF9002805D03949201C04F026F9041C51
:101D2000F3E73749201C04F069F9002805D033494E
:101D3000201C04F01DF9041CF3E760004008FE219C
:101D4000890504F071F900289ED0211C201C04F0A4
:101D50000FF9041C011C281C04F007F9051C211CA8
:101D6000301C04F005F9061C8EE700250021301C0C
:101D700004F044F9002807D11D49301C04F054F93F
:101D8000002802D01A4E00E00026301C04F078F93A
:101D90000400281C04F074F92100FFF74BFDDCE57A
:101DA000184CBAE5174DCAE5EC310020F03100209F
:101DB0005CCC00200000204260CC0020D40D00202C
:101DC000D00D00201C160020CC0D0020C80D0020D6
:101DD000201600203333234080E20220982D00207B
:101DE000942D00200000FF430000484200004843BB
:101DF00000007F4310E10020000034430000B443A2
:101E0000000034C3000080BF70B50C00642800D906
:101E10006420642C00D964240302181A642103F09E
:101E2000BFFC85B22002001B642103F0B9FC84B220
:101E30002A0000210420FFF7A3FC22000021052036
:101E4000FFF79EFC70BD000000B583B005E00648BA
:101E500004F04AFCC82009F0A5FF01A8FFF78AFB9F
:101E60000028F7D1F3E7C0467CB2011070B504003A
:101E70003D4B01221A703D4B3D4A1A603D4B1A60A2
:101E8000002859D03C493D4804F05EFC002C55D058
:101E90003B4B01221A703B4B00221A70AF256D009C
:101EA000280009F07FFF384804F01EFC344B012263
:101EB0001A70344B1A70280009F074FF334804F08C
:101EC00013FC002C41D02E4B00221A702D4B0132F6
:101ED0001A70AF20400009F065FF2D4800222D4BFD
:101EE00004F032FC264B01221A70264B1A70962001
:101EF000400009F057FF284804F0F6FB002C2BD0D7
:101F00001F4B00221A701F4B01321A70AF2464005D
:101F1000200009F047FF214804F0E6FB184B01229E
:101F20001A70184B1A70200009F03CFF1C4804F08E
:101F3000DBFBFFF7BEFC70BD1A49A4E7104B002283
:101F40001A70104B01321A70A8E70D4B01221A705B
:101F50000C4B00221A70BCE7094B01221A70094B86
:101F600000221A70D2E7C046B8E30220E00D00203C
:101F700000001842DC0D00208CB201109CB2011050
:101F8000D90D0020D80D0020C0B20110ECB2011014
:101F900020B301100040444054B3011088B3011035
:101FA000B4B3011094B2011010B582B0184B1B7875
:101FB000002B01D002B010BD154B01221A70154B39
:101FC00000221A70144B00221A60144B1A60FFF79B
:101FD00070FC134804F088FB124C2000FFF7CAFA8B
:101FE000206804F087F802000B000F4804F0ACFBF7
:101FF0000E4B186809F056FD80220D490D480E4B16
:102000000193022300930023520009F005FCD1E75D
:10201000CAE30220C40D0020E00D0020DC0D0020EA
:10202000DCB301101C1D002010B401102416002088
:1020300028B40110A12000102C16002010B50F4A62
:10204000002313700E4A13700E4A1370FFF731FC11
:102050000D4B01221A70FFF7B3FB0C4B0C4A1268B0
:102060001A600C4B186809F09FFD0B4B186809F0BB
:102070009BFD0A4804F038FB10BDC046B6E30220C1
:10208000B8E30220CAE30220C40D002010E10020C2
:102090001C1D0020241600203C16002030B4011026
:1020A00030B583B0694601A8FFF708F90500441E62
:1020B00063425C41E4B200280FD0012D18D00D49D5
:1020C0000D4804F041FB2000FFF7D0FEFFF7B6FFFC
:1020D000002009F047FC03B030BD084804F004FBC1
:1020E000FFF7E7FBFFF7AAFF002009F03BFCE4E75E
:1020F0000349E5E794B2011088B4011068B40110F7
:102100008CB2011010B5041E14D00E490E4804F014
:102110001BFB002C10D0AF200C494000FFF78AFBBE
:10212000AF20400009F03EFEFFF7C3FB322009F06C
:1021300039FE10BD0649E9E7AF2149000348FFF722
:1021400079FBEDE78CB201109CB40110A2FEFFFFF9
:1021500094B2011070B504000D000E48210004F087
:10216000F3FA29002800FFF765FBFA22920000230A
:102170002000002103F0DCFEFA229200002303F08D
:1021800075FB09F00FFEFFF794FB322009F00AFE01
:1021900070BDC046C0B40110F0B5C64600B504001D
:1021A000104D01272F701048210004F0CDFAFFF7E1
:1021B00080FB0E4E0023984633704C3C63425C41DA
:1021C000E0B2FFF79FFFFA2078218000FFF7C2FFFF
:1021D000377043462B70064804F086FA80BCB84638
:1021E000F0BDC046B7E30220E8B40110C40D0020E2
:1021F0001CB5011010B58300084A944663441A6860
:1022000040246240803414408022520113431C60F9
:10221000C000034B9C466044416010BD04C00140B7
:102220000040014080000B4B9C46604400290DD0CB
:102230000823002A0CD004221343026853400C22C6
:102240001A4080235B0103431A6070470023F0E7C4
:102250000022F1E704C00140002909D08000094BA9
:102260009C46604480239B01034302221A6070470E
:102270008000044B9C466044C0239B010343022220
:102280001A60F4E704C0014070B50400D0231B06B7
:102290001D680D4BAA00D358002B0AD0002803D08C
:1022A000094BAD00EC5070BD08490D2000F09CFBBF
:1022B000F6E70028F7D0044BAD00E85003490022B0
:1022C0000D2000F089FAEEE7301E0020E523001013
:1022D00070B5D0231B061B68094C9D002C59204269
:1022E00007D1074D9B0004435C510D2000F074FAA8
:1022F00070BD044B044A0548CC2102F06DF8C0467D
:10230000CCDE002058B501107409021084B501100C
:1023100010B50400D0231B061A680B4B9200D3584B
:1023200018420BD00D2000F05FFBD0231B061B686A
:1023300005499B005A58A2435A5010BD034B044A0A
:102340000448D62102F048F8CCDE0020CCB50110BC
:102350005009021084B50110072303409B00C008F8
:1023600099403C308000014BC15070470040014013
:10237000F8B507000C0016001D00FFF7EDFFFB0885
:102380009B00ED180720384080008440002E04D0C8
:1023900080239B012B431C60F8BDC0239B012B4372
:1023A0001C60F9E710B5D0231B061B68002B03D077
:1023B000024BFFF7DDFF10BD014BFAE73041014052
:1023C0000041014070B514001D00FFF7EBFF28002D
:1023D000FFF75AFF002C00D170BD01210D2000F045
:1023E000A7F9F9E7F0B5D6464F464646C0B5D02323
:1023F0001B061F681D4BBA00D3589846002F03D008
:102400001B4B9946002623E01A4B9946FAE724090C
:102410000135002C1BD033000833AB4217D90F23F2
:102420001A00224092462342F1D0134BBA00D258F0
:102430000123AB401342EAD151462800FFF78CFF3D
:102440004346002BE3D051462800C047DFE708365B
:102450001D2E06D8F30808339B004A469C583500C9
:10246000D7E7E0BCBA46B146A846F0BD301E002012
:102470003041014000410140CCDE002010B5012375
:102480008340D0221206936293610521FFF7B2FECA
:1024900010BD0000034B1B6802201840431E9841EA
:1024A000C0B2704700C00640EFF3108072B6034B15
:1024B0001B68002BFBD0BFF35F8F70472C0100D04F
:1024C000BFF35F8F024B00221A6080F310887047C1
:1024D0002C0100D0F8B506000C001500FFF7E4FF52
:1024E000E308F718F15C07222240012393400B42D6
:1024F00005D1DBB20B433B70FFF7E2FFF8BD2100D3
:10250000280002F001F8F0B583B006000191140034
:102510001F00FFF7C9FF00E00134BC420CD8E308FC
:10252000F518F35C0721214001228A401A42F3D1B9
:10253000D2B21A432A7001E001246442FFF7C0FFBF
:10254000002C02DB200003B0F0BD019B002BF9D072
:10255000089801F0D9FF000070B505000C00FFF7E6
:10256000A3FFE308EE18EA5C0721214001238B401A
:10257000134204D09A433270FFF7A2FF70BD034BA1
:10258000034A0448332101F027FFC046F8B5011083
:10259000A809021018B60110002307E0054A9A188E
:1025A0009200BFF35F8F0021116001331F2BF5D91B
:1025B0007047C04640000034054A1078431CDBB227
:1025C0001370172B02D9130010221A707047C046DF
:1025D000E40D002010B50100024A034B1800FFF77C
:1025E00079FF10BD60B60110401E002010B582B00A
:1025F0000100054C054B00931F2318222000FFF714
:1026000082FF02B010BDC046401E002080B60110FF
:10261000074B9B68103080001950BFF35F8FBFF3EA
:102620005F8F044B0021196082F310887047C04609
:1026300000ED00E0240100D01F23181A70470000AD
:1026400010B50388DA0A1C2A05D15B055B15023335
:102650005B00C01810BD034B034A0448B12101F0D0
:10266000BBFEC0469CB601100C0A0210B4B60110A5
:1026700010B5091A0B1F0A4A88180A4A904208D84E
:10268000C90706D45B105B055B0D0748184380B291
:1026900010BD064B064A0748A32101F09DFEC04627
:1026A000FC070000FE0F000000E0FFFFF8B601107D
:1026B000000A0210B4B6011010B5091A04394A080C
:1026C000090B08D14905490D064B0B430380064B06
:1026D0001343438010BD054B054A0648AB2101F06A
:1026E0007BFEC04600F0FFFF00F8FFFF28B7011097
:1026F000D4090210B4B6011001238340034A1068C4
:102700001840431E9841C0B27047C04600E100E047
:10271000002904D0034B1860034B18607047034B2B
:102720001860FBE780E200E000E100E080E100E00B
:1027300010B5012383401800FFF7EAFF10BD000029
:1027400001238340014A13607047C04600E200E065
:10275000024B9B6810308000C058704700ED00E0CD
:1027600010B5FFF7F5FF002805D0054BC01A2F283C
:1027700003D8012010BD0020FCE70020FAE7C04686
:10278000E80D002070B504000D00EFF3108672B65E
:102790000C4B1B68002BFBD0BFF35F8F2000FFF7B3
:1027A000D7FF094B984201D0A84205D13200290039
:1027B0002000FFF72DFF70BD044B054A0548862118
:1027C00001F00AFE240100D0CD01001038B701103D
:1027D000340A0210B4B60110F0B5DE4657464E4634
:1027E0004546E0B589B0814601911500EFF3108AA6
:1027F00072B66D4B1B68002BFBD0BFF35F8F6B4B2A
:1028000000269E57002E41DB7400A419A4006848DE
:1028100024180622A256654B1A70664B9A684B46DE
:1028200010339B00D35898461F00181A2F2839D907
:10283000614B984530D105AF604B3B8060497300D8
:102840009B46981980005A4B984640440230FFF747
:102850000FFF78805B4BBB80FF23BB71FD71019B39
:10286000079333005B449B00434407CF07C3012316
:102870001C43A046524641464846FFF7C9FE09B0F0
:10288000F0BCBB46B246A946A046F0BD4E4B4F4AEF
:102890004F48D72101F0A0FD4E4B4C4A4C48DE2159
:1028A00001F09AFD01380C2102F0A2FF002912D19B
:1028B00001239F43BB463B000027DA79AA4211D986
:1028C0000621595600290CDB4A005218920038495B
:1028D0001F008B18F1E7404B3C4A3D48EA2101F0CC
:1028E0007BFD1F00002F2ED005AB3C4A1A80813A99
:1028F0005A800623FB560293002B17DA384805ABA3
:102900009B469880029A9A71DD71019A0792381D50
:102910002100FFF7ADFEB880BE71254B7200921901
:1029200092009B185A4613CA13C3A3E7381DFFF73A
:1029300087FE01007000801980001D4BC018043014
:10294000FFF796FEDBE705AF1C4B3B801C4973008D
:1029500002939B199B00164A90461A004244039228
:10296000901CFFF785FE7880039A101D5946FFF7EB
:102970007FFEB8801B4B5A464146521A5241534380
:102980001B0DBB71FD71019A0792029B9B199B0065
:10299000434407CF07C3114B5A461380813B5380F2
:1029A00001231C43A04665E7240100D0C9E30220AF
:1029B000E80D002000ED00E0CD01001000A1FFFFB8
:1029C000180E002001BDFFFF70B701101C0A021095
:1029D000B4B6011098B70110C0B70110014800004B
:1029E00001BD0000AAAA0000F0B5CE46474680B55A
:1029F00083B006000D00EFF3108872B64F4B1B68D2
:102A0000002BFBD0BFF35F8F4D4B9A68340010341E
:102A1000A300D7584B4B9F4207D0AF4200D18BE069
:102A20000197494BFB1A2F2B09D942463900300038
:102A3000FFF7EEFD03B0C0BCB946B046F0BD3000B4
:102A4000FFF75AFE814600213000FFF771FEBFF309
:102A50005F8FEFF30581002901D08C4211D1012352
:102A6000019C9C430020A368AB4212D00622A256D0
:102A7000002A0DDB53009B189B00334A2000D4181A
:102A8000F1E7324B324A36213248FF3101F0A4FCE3
:102A90002000AB4249D106256557002D2BDB2A4B80
:102AA0006A00521992009B189A68A260DA79E27162
:102AB0009B795BB2A371002B0FDA2748A080224BD1
:102AC0006A00521992009B18244A11789971157066
:102AD00049463000FFF72CFEA7E768004019800048
:102AE000194BC0180430FFF7ABFD0100231D18007F
:102AF000FFF7BEFDE2E7002912D100280ED0FF2328
:102B00008371174B838015490B78A3710E4A154BBF
:102B1000A41A644163431B0D0B70D9E7094FF2E718
:102B20001149201DFFF7C8FDD2E7104B084A6A2162
:102B30000848FF3101F050FC024F76E7240100D035
:102B400000ED00E0CD010010E80D002034B80110C8
:102B5000EC090210B4B6011001BD0000C9E3022067
:102B600001BDFFFFAAAA0000220E002068B80110D4
:102B700010B5032304009C43064A9446644422682B
:102B80001840C000FC3383409A43130081400B433C
:102B9000236010BD00E400E070B5012202432E4B1B
:102BA000D31A2F2B28D8EFF30583002B2BD0EFF36C
:102BB000108C72B6294909680029FBD0BFF35F8FDA
:102BC000254C274905002D1B6D416943090D4CB269
:102BD000244989689B00C95891421BD000210329D0
:102BE00032D81D4B4A00521892009B189B795BB259
:102BF000A3421FD00131F2E71B4B1C4AC7211C48DE
:102C0000490001F0E9FB1B4B184A92211848FF319B
:102C100001F0E2FB134A92681749D150174B1A781A
:102C200082711C70BFF35F8F0C4B00221A608CF313
:102C3000108870BD084B4A005518AD005D19FF267D
:102C4000AE710F4AAA80E9E70E4B084AD121084825
:102C5000490001F0C1FBC046E80D0020240100D06E
:102C6000AAAA000000ED00E070B80110B809021037
:102C7000B4B6011098B80110CD010010C9E30220CC
:102C800001BDFFFFA4B801100022044B02E004497B
:102C900002C30132072AFAD97047C04600E400E0B7
:102CA0008080808010B5FFF7C7FC0100024B180040
:102CB000FFF752FC10BDC046D6E3022010B582B02B
:102CC0000100074C074B0093052300222000FFF76B
:102CD0001AFC002801DB1F23181A02B010BDC046E1
:102CE000D6E30220ACB8011070B504000E00150048
:102CF000FFF762FC0100200000F006F8A680E580E6
:102D0000BFF35F8F70BD0000024B9C466144890099
:102D1000016070474000003410B5002B02DB0260F8
:102D2000436010BD024B034A03483F2101F054FBAE
:102D3000C8B801108C0A0210E4B8011070B582B056
:102D4000060014001D00FA229200002306980021BC
:102D500003F0EEF802000B0012196B41002B09DBA7
:102D60006846FFF7D9FF009A019B3260736030001C
:102D700002B070BD01225242004BF1E7FFFFFF7F1E
:102D800010B582B0040000F033FE02000B0068466C
:102D9000FFF7C2FF009A019B22606360200002B02F
:102DA00010BD30B585B004000D0002A8FFF7E8FFA4
:102DB000029A039B00952000FFF7C0FF200005B09A
:102DC00030BD10B50400FFF7F7FB01002000FFF74E
:102DD0009BFF01235B426360BFF35F8F10BD10B5A3
:102DE0000400FFF7E9FB01002000FFF78DFF01233E
:102DF0005B42636000232372BFF35F8F10BD00004E
:102E0000034B9C46614489000160BFF35F8F7047AC
:102E10004000003410B504000120FFF7E7FB01007B
:102E20002000FFF7EDFF10BD084B5B6A994209D8FF
:102E3000064A926A824207D2994201D0012002E0FA
:102E4000002000E0002070470120FCE70040054022
:102E500010B500290AD003681B7B8B4206D380681B
:102E6000054B9C4661440901401810BD034B044AC0
:102E700004483C2101F0B0FAFFFFFF0FC4B9011074
:102E8000C40B0210E8B90110F8B504001700FFF7F1
:102E9000DFFF0668456839002000FFF7D9FF0268A8
:102EA00043680120AB4201D802D00020C0B2F8BD77
:102EB000B242FBD8F9E7000010B5002B02DB02603C
:102EC000436010BD024B034A03483F2101F084FADE
:102ED000C8B80110900B0210E4B8011010B582B010
:102EE00004000498059912184B41002B09DB684631
:102EF000FFF7E2FF009A019B22606360200002B0AE
:102F000010BD01225242014BF1E7C046FFFFFF7F97
:102F100010B5002908D0037B8B4205D300684B0015
:102F20005B18033BC01810BD024B034A03486821DD
:102F300001F052FA28BA01106C0B021044BA0110C9
:102F400010B5437B8B4201D1012010BDFFF7E0FF9C
:102F50008378002B01D10020F7E70120F5E770B559
:102F60000400857B002D01D1280070BD2900FFF7EA
:102F7000CFFF4378A373002B00D1E373002383704A
:102F800043700370F0E70000F8B506000C00150070
:102F9000FFF7BEFF0700002C0DD0002D11D0AC4272
:102FA00015D029003000FFF7B3FF84703B78002B69
:102FB00013D13D70F8BD0A4B0A4A0B486F2101F04E
:102FC0000BFA0A4B074A0848702101F005FA084B32
:102FD000044A0548712101F0FFF943703D70E9E7AB
:102FE00098BA0110480B021044BA0110A4BA01109B
:102FF000B0BA011070B506000D001400002914D0FD
:10300000002A14D0436880689847002806D0220020
:1030100029003000FFF7B8FF280007E02A00210050
:103020003000FFF7B1FF200000E0100070BD080085
:10303000FCE7000070B504000D1E0CD0FFF768FF20
:103040000023837043700370617B2A002000FFF728
:10305000D1FF607370BD034B034A0448A52101F002
:10306000BBF9C046C8BA01105C0B021044BA01108B
:1030700070B504000D1E0FD0FFF762FF00280BD1C2
:10308000E17B00290ED1A37B002B03D1E37B002B36
:103090000DD1A573E57370BD084B094A0948F621A7
:1030A00001F09AF92000FFF733FF4570EBE7064B7C
:1030B000034A0448FB2101F08FF9C046CCBA011045
:1030C000380B021044BA0110F0BA011010B50029F3
:1030D00007D003681B7B8B4203D3C06801394018BB
:1030E00010BD034B034A0448412101F075F9C04665
:1030F000C4B90110240B0210E8B9011070B5050025
:103100000C00080000F050FD0949200000F090FC80
:10311000FFF752FA074B9C466044800068602C75AC
:10312000D0231B061B786B75034BA400E55070BDC4
:1031300019320010400000344CCC002010B582B091
:10314000040000F055FC02000B006846FFF7B4FED7
:10315000009A019B22606360200002B010BD70B530
:1031600084B0040016001D0002A8FFF7E7FF029AD2
:10317000039B009601952000FFF7B0FE200004B0ED
:1031800070BD0000F0B583B0070001921D000AABCE
:103190001C780BAB1E78002C0BD000682100FFF7C9
:1031A000CFFE002809D0194B194A1A48672101F0AF
:1031B00013F90068FFF7D3FE0400002C02D12000B1
:1031C00003B0F0BD21003800FFF742FE019B036011
:1031D0004560089B8360099BC36038682100FFF746
:1031E00029FFA042EBD1387D019A2B0000F068FC4A
:1031F000051E01D0002E04D00C9B002BDFD01D70CB
:10320000DDE73868210000F055FEF5E704BB01104A
:10321000780B0210E8B90110F0B5DE4657464E466D
:103220004546E0B58FB00B900021794B8200D45811
:10323000894683E029002000FFF70AFE80460268E5
:103240004368921BBB41002B09DD43461A685B684B
:103250000B9800F035FC0023984600268AE0002BEE
:1032600001D1002AF1D10021584600F019FE0700D3
:10327000A84215D143461A685B68089209934346F1
:103280009E68DB689846002E10D029002000FFF7CA
:103290001DFF037899461B021F432761002069E048
:1032A0005C4B5D4A5D488E2101F096F85C4B5A4AB2
:1032B0005A48922101F090F82369002B00D177E061
:1032C000BB4219D106980799002342428B410092D4
:1032D0000193089A099B0CA8FFF700FE0C9A0D9B1E
:1032E000002104910131039102954146019100961C
:1032F0002000FFF747FF16E04A4B474A4748A12105
:1033000001F06AF8069A079B002B01D1002A52D1DE
:1033100020682900FFF7ACFE29002000FFF7D6FE49
:10332000037801330370002323616268BFF35F8F6A
:1033300013608AF310880120002861D00CA8FFF7E1
:10334000FDFE0C9E0D9F00220023089209936268E7
:10335000EFF3108A72B61368002BFCD0BFF35F8FB7
:1033600023689B465D7B002D00D063E700239846D1
:10337000002600206368BFF35F8F00221A608AF383
:103380001088002ED8D04B461F022F4341463800EC
:10339000B047069007916268EFF3108A72B613681F
:1033A000002BFCD0BFF35F8F079B002B00DA83E775
:1033B000079B002BA6DD2369002BA9D0BB4219D1A6
:1033C0000CA8FFF7BBFE0C9A0D9B0698079900907E
:1033D00001910CA8FFF782FD0C9A0D9B002104912E
:1033E0000131039102954146019100962000FFF7BB
:1033F000C9FE98E70B4B084A0848A42100F0ECFFEF
:103400000FB0F0BCBB46B246A946A046F0BDC046D0
:103410004CCC00202CBB0110A80B0210E8B9011005
:1034200044BB011050BB011010B5084B1A68EFF3F4
:10343000108172B61368002BFCD0BFF35F8F034876
:1034400006F00EF90020002110BDC046F0E000207B
:1034500010B50C4B5B68002B04D00B480A21FFF71A
:1034600053FC10BD074C094A20682300102100F0CE
:1034700062FC032000F094FA03212000FFF73EFED7
:10348000EBE7C046300E0020F0E00020892E00104F
:1034900010B5064B5B68002B01D0044810BD044BEF
:1034A000044A05485E2100F097FFC046300E002018
:1034B0008CBB01100C0B0210E8B9011070B50500AF
:1034C000182002F057FF04000C490200280000F009
:1034D00039FC20601021280002F062FFA060012169
:1034E000280002F05DFFE060012000F06FFA0100AB
:1034F0002000FFF703FE200070BDC046892E00109B
:1035000010B50400164B98421DD0037D154A990052
:103510008A5882421DD1134A9B00002199500068AD
:1035200000F026FC207D002100F082FA207D00F0D2
:1035300043FAE06802F04CFFA06802F049FF200067
:1035400002F046FF10BD084B084A0948D32100F09D
:1035500043FF084B054A0648D72100F03DFFC0460F
:10356000300E00204CCC002068B80110F80A021080
:10357000E8B90110B0BB0110F0B5DE4657464E4623
:103580004546E0B58DB0060090461F00169B9A4652
:10359000179B994618AB1B780793272302AA9446DA
:1035A000634400221A7021E001003000FFF78EFD15
:1035B00000783CE00698002B5CD0079B002B59D08C
:1035C0004946D04704000D0003000B4359D00029A1
:1035D00040DB08A8FFF7B2FD089A099B009401950B
:1035E00008A8FFF77BFC089B9846099F7268EFF3D9
:1035F000108B72B6136859424B41D9B20691002B19
:10360000F8D1BFF35F8F273302AA94466344049333
:103610000023039302934B46019353460093424683
:103620003B003000FFF7AEFD0400051EBCD17368FF
:10363000BFF35F8F002119608BF31088002D17D026
:10364000272302AA944663441B78002BB2D10002C0
:103650002043B0E700236242AB410092019342460F
:103660003B0008A8FFF73AFC089B9846099FBDE776
:10367000012040420DB0F0BCBB46B246A946A04670
:10368000F0BD0698F6E7F0B5C64600B584B0050073
:10369000884616001F000AAB1C78FFF7F9FE02945B
:1036A000019700962A004346FFF766FF04B080BCEE
:1036B000B846F0BDF0B5C64600B588B005001F217C
:1036C0006944002008706868EFF3108872B60168DA
:1036D0000029FCD0BFF35F8F1F21694404910121B1
:1036E0000391002102910F9901910E9900912800F8
:1036F000FFF748FD0400071E14D106006B68BFF3F6
:103700005F8F00221A6088F31088002F14D01F23C7
:103710006B441B78002B0BD13002204308B080BCD7
:10372000B846F0BD01002800FFF7D0FC0678E5E7B9
:10373000287D00F059FAEFE701204042EEE7000053
:10374000F0B5C64600B505000C1E42D04268EFF346
:10375000108772B61368002BFCD0BFF35F8FE6B200
:103760002B68984631001800FFF7EAFB00282AD0A2
:103770002B69A34213D0240AE4B231002800FFF7DA
:10378000A5FC0378A34211D000206B68BFF35F8FC4
:1037900000221A6087F3108880BCB846F0BD0E4B3B
:1037A0000E4A2C210E48FF3100F016FE3100404633
:1037B00000F080FB0028E8D10A4B084A992108480C
:1037C000490000F009FE2B69A342DED100232B61E2
:1037D000DBE70020E0E7C046D8BB0110E00A02109A
:1037E000E8B90110FCBB011010B50400FFF750FE52
:1037F0002100FFF7A5FF10BD407D704730B587B0B1
:1038000004000D00EFF30583002B20D196225242D5
:10381000D31712196B418B4202D803D1824201D9CE
:103820000022002304A8FFF747FB02A8FFF786FC4D
:1038300002980399049A059B121A8B41002B0BDC0A
:1038400008D02000290000F0DFF807B030BD114893
:1038500000F05AFE002AF4D00F4A0498059900237C
:103860000093FFF710FF00280DDAEAE70B4B1A6808
:10387000EFF3108172B61368002BFCD0BFF35F8F9B
:10388000064805F09DFE04980599FFF7CDFA00283B
:10389000ECD0D6E700BC011029340010F0E0002085
:1038A00000B583B002000B006846FFF758FC009893
:1038B0000199FFF7A3FF03B000BD10B5FA229200F3
:1038C0000023002102F034FBFFF7EAFF10BD0000E7
:1038D00030B583B005000C00EFF30583002B0FD14A
:1038E0000B4A00230093FFF7CEFE00280BDD20BF1C
:1038F000FFF77AFF28002100FFF796FA03B030BDEA
:10390000FFF792FAFAE728002100FFF78DFAF5E7B2
:103910002934001070B5EFF305801038EFF3108CE8
:1039200072B6194B1B68002BFBD0BFF35F8F0122CF
:103930001300834015494B6315490B6015490978FD
:103940000C00C440224213D0104A546A124A850027
:10395000AA58944205D3114AAA580E4C9943217093
:1039600007E00A4A031D9B0099589950002200E085
:103970000022BFF35F8F044B002119608CF3108885
:10398000002A00D0904770BD280100D000400540BB
:103990003C700540D5E3022014E10020001C00200B
:1039A00010B50100024A034B1800FEF793FD10BD4D
:1039B00050BC0110C3E3022010B50100024B1800F7
:1039C000FEF7CAFD10BDC046C3E3022010B582B0A9
:1039D0000100054C054B0093032300222000FEF755
:1039E00092FD02B010BDC046C3E3022074BC0110BA
:1039F000044B5B6A034A906A1900536A9942F9D1F1
:103A00007047C04600400540084B5B6A01E0074B29
:103A10005B6A8B42FBD301E0044B5B6A8B4203D1B0
:103A2000024B9B6A8342F7D37047C0460040054073
:103A300070B504000E00EFF3108572B61B4B1B68C7
:103A4000002BFBD0BFF35F8F002E1CD02000FEF7B1
:103A50007FFE174B83420BD019002000FEF792FE29
:103A600001212000FEF764FE0123A340114A1360E8
:103A7000114BA400E650BFF35F8F0C4B00221A607D
:103A800085F3108870BD0C4BA2000021D15001229B
:103A9000A2400A490B7893430B7005492000FEF7BA
:103AA000A3FF00212000FEF743FEE4E7280100D039
:103AB0001539001038600540001C0020D5E30220B5
:103AC000F0B5DE4600B584B00400150001921E007A
:103AD0000293FFF78DFF03958E4202D84ED18542A7
:103AE0004CD9EFF3108B72B6274B1B68002BFBD021
:103AF000BFF35F8F254A17780125A540EBB23B4302
:103B00001370234B5D63221D92000199D150214A0D
:103B1000A100029888501B6A2B4212D11C4B1B6CCF
:103B20002B4208D00020BFF35F8F174B00221A6092
:103B30008BF3108823E0184B184A1948C52100F070
:103B40004BFCFFF755FF8E4214D802D1039B8342F2
:103B500010D80E4B1B78BB420ED00D4B1D625D631F
:103B60001F222240012393400E4A1360074B1F700F
:103B70000120D8E70020D6E70120D4E7012004B0D7
:103B800080BCBB46F0BDC046280100D0D5E3022072
:103B90000040054014E1002088BC0110D80B021041
:103BA000ACBC011080E200E0EFF3108C72B60B4B5E
:103BB0001B68002BFBD0BFF35F8F01238340084AB3
:103BC000136208490A789A430A70BFF35F8F034B68
:103BD00000221A608CF310887047C046280100D07C
:103BE00000400540D5E30220EFF3108C72B60B4B7A
:103BF0001B68002BFBD0BFF35F8F01238340DAB239
:103C00000749087802430A70BFF35F8F034A002117
:103C100011608CF31088034A13607047280100D0AC
:103C2000D5E302203C60054010B5002908D0037B95
:103C30008B4205D300684B005B18033BC01810BDD6
:103C4000024B034A0348682100F0C6FB28BA011062
:103C5000340C021044BA0110F8B506000C0015002F
:103C6000FFF7E2FF0700002C0DD0002D11D0AC4271
:103C700015D029003000FFF7D7FF84703B78002B68
:103C800013D13D70F8BD0A4B0A4A0B486F2100F072
:103C9000A3FB0A4B074A0848702100F09DFB084B24
:103CA000044A0548712100F097FB43703D70E9E735
:103CB00098BA0110200C021044BA0110A4BA0110E5
:103CC000B0BA011070B506000D001400002914D020
:103CD000002A14D0436880689847002806D0220044
:103CE00029003000FFF7B8FF280007E02A00210074
:103CF0003000FFF7B1FF200000E0100070BD0800A9
:103D0000FCE770B505000023437301338373037B25
:103D1000C373012406E021002800FFF785FF01346A
:103D2000E4B24470297BA142F5D82800FFF77CFF5C
:103D30000023437070BD10B5017342608360FFF7CC
:103D4000E0FF10BDF8B505000E001700102101209E
:103D500002F026FB04000321280002F021FB206072
:103D60003B00320029002000FFF7E5FF2000F8BDEE
:103D700010B50400006802F02BFB200002F028FBC5
:103D800010BDF0B5C64600B505000C1E03D12000DD
:103D900080BCB846F0BDFFF747FF4678002EF6D04E
:103DA00031002800FFF740FF477800239846437012
:103DB00021002800FFF738FF4346437032002100FE
:103DC0002800FFF77FFF040039002800FFF7D9FF24
:103DD000020021002800FFF775FF0400D7E700006C
:103DE000F0B5C64600B504000D001700002927D025
:103DF000FFF71AFF4378002B28D18378002B2BD1B3
:103E000001782000FFF7BDFF06008046002F0AD092
:103E1000E17B002926D1A37B002B03D1E37B002B80
:103E200025D1A573E5734346002B26D12900200038
:103E3000FFF7FAFE00234370300080BCB846F0BDA7
:103E4000114B124A1248382100F0C6FA114B0F4AA2
:103E50000F483A2100F0C0FA0F4B0C4A0C483B21A6
:103E600000F0BAFA2000FFF7DFFE4570D3E70B4BF6
:103E7000064A0748422100F0AFFA31002000FFF760
:103E8000D3FE00238370D1E7F4BC01100C0C0210A8
:103E9000FCBC01103CBD011064BD0110F0BA011062
:103EA00070B504000A00457B2900FFF799FF607395
:103EB000280070BD70B506000C1E40D0437B8B42BD
:103EC00007D0FFF7B1FE05008178002906D1002058
:103ED00036E00121FFF7E4FF012031E03000FFF779
:103EE000A3FE0178A1420DD03000FFF79DFE41787E
:103EF000A1420AD00029F7D1124B134A13486B3163
:103F000000F06AFA6B78037001E06B78437000236D
:103F1000AB706B70012221003000FFF761FF0200DF
:103F2000717B814205D03000FFF7CCFE7073012019
:103F300006E0074B044A0548712100F04DFA0020C5
:103F400070BDC046A4B80110F40B0210FCBC0110F7
:103F500088BD0110F8B5DE4657464E464546E0B5E9
:103F600006000F0015000A9A934250D31A0E92468B
:103F70001B0298460A9A00234046514601F076FCFF
:103F800081467400A419A4002F4B9C4664446368C6
:103F9000834200D26060331FDBB29B46012B3CD9C9
:103FA000C0239B012343802212011A60274BB200D9
:103FB000D158002907D0586901F01AFC013043009C
:103FC0001B18033BFDD26D0123685D40E0222A40AF
:103FD00080235B0123431A605A46012A28D9802393
:103FE0009B012343802212011A604B4663604A46BC
:103FF00000234046514601F039FC144BB60098515D
:104000000120F0BCBB46B246A946A046F8BD104B05
:10401000104A1148332100F0DFF9012FC0D1C0232D
:104020009B01234303221A60A368DB07FCD5CAE780
:104030002168794003220A401A60A3680125BD4027
:104040001D42FAD0CBE7C04600800040441E00204D
:10405000A8BD0110400C0210BCBD011030B583B0EA
:104060000C2000F011F9FEF715FA00280DD00023FE
:1040700004E02E4A99002E4888500133092BF8D9C4
:104080002A4B2C4A5A6203B030BD2B4B00229A6750
:1040900000F06CF9294B01221A60274B5B6C012B55
:1040A000FBD1274B03221A60234B9B6B012BFBD1C7
:1040B000013300930433234A0121234800F054F8CC
:1040C00005230093214A0121214800F04DF8214B9E
:1040D0000093002202210420FFF73CFF1E4D0095B3
:1040E0002B00002201210520FFF734FF104C009423
:1040F0002300002200210720FFF72CFF009423005B
:10410000002200210820FFF725FF0A4B009323001F
:10411000002200210920FFF71DFF00952B0000223F
:1041200000210620FFF716FFADE7C046441E002021
:10413000006CDC021BB70000008000403CB0004077
:1041400030B00040002F685900800240008C864744
:1041500000C00240001BB70040597307014B8000AC
:10416000C0587047441E0020F0B5C64600B5040094
:104170000E0017001D00374801F03AFB8046364B11
:10418000FA18364B9A4239D80100380001F030FB5A
:104190000200103A98235B009A4235D86B1E062B1A
:1041A00038D8069B013B062B34D83F09474537D307
:1041B0002D04069B1B031D432368002B36DB284B75
:1041C0009C4244D080235B01264A1360264A136038
:1041D000264A926819009143FAD12660A060221DF8
:1041E000C0239B01134321221A602268002AFCDAB3
:1041F000E56008221A6080BCB846F0BD1C4B1D4A21
:104200001D48112100F0E8F81C4B1A4A1A481921E0
:1042100000F0E2F81A4B174A17481C2100F0DCF8AE
:10422000184B144A1448232100F0D6F822683F2383
:104230001340B342C3D1A3681B051B0D8342BED1FB
:10424000E368EE22D2021340AB42B8D1D3E7802319
:104250009B01B9E7001BB70080E84BD380F8A93277
:1042600000C0024000E0004000F0004000C00040FC
:1042700008BE0110500C021068BE0110ACBE011047
:10428000C8BE011014BF011080239B000343014AE4
:10429000D362704700800540024B1A68024B5A6097
:1042A0007047C0461C3200200080054010B5174BF7
:1042B0008022D2051A60164B164A1A6000290AD0CD
:1042C000154BE022D2041A60002809D1124B80223B
:1042D00012061A6010BD0D4BE022D2041A60F3E7FB
:1042E00043011B1A9B00181800010C4B1860802317
:1042F0005B04984202D3094B094A1A60FFF7CCFFCE
:10430000054B8022D2051A60E4E7C04600B00540A4
:1043100008200140FCFF010000A005401C320020E5
:10432000FFFFFF0010B5030010000C4A8024E405D5
:104330001460002B0DD001221343094A094CD461AB
:10434000094C5C401462516293620021FFF7AEFF9A
:1043500010BD034B0022DA61F7E7C04600B005400C
:1043600000800540D3C007B02D3FF84F064BAA226E
:1043700012011A602F22DA60044B054A1A60024BC0
:104380005B68002BFBDA704700400240006002408F
:1043900000B0FA0000BEFDE703000A4A1268002AD6
:1043A00008D0084A1068C318074A9A4206D3054A3B
:1043B00013607047034A05491160F2E7012040424B
:1043C000F7E7C046D42D002000000420D8E30220E7
:1043D00010B5FFF7DFFF000030B583B00D00190006
:1043E000002A0BD0074B084C019200932B000200CF
:1043F000200002F0A9F90120FFF7CCFF034B1A00BF
:10440000F1E7C04630BF011040BF0110FCAD011004
:1044100070B52B4B2B4A1A602B4B2C4A1A602C4B35
:104420009A682A4B9343FAD12A4C01E008CC98476A
:10443000294B9C42FAD3FFF711FE234B274A1A60FF
:10444000234B9B68DB43DB01FAD1254B40229A6763
:104450005A671A67DA66234C09E0234B234A24483B
:104460008721FFF7B9FF2000FEF7ABFC0834214B92
:104470009C4209D22368002BF5D0012BEDD12000FE
:10448000FEF7ADFC0C34F2E71B4DA9681B4CC022B3
:10449000200001F0BBFFAC60EFF30583002B00D0E0
:1044A00000BEFEF779F8FEF7EFFBFEF7D1FF144CE4
:1044B00001E008CC9847134B9C42FAD370BDC0462C
:1044C00000E00040BFCDFBFE00F00040FE7F3C005E
:1044D00000C000407814002088140020FFFFFF0176
:1044E00000F001406814002070BF01105C0C021045
:1044F00090BF01107814002000ED00E000000020C3
:1045000088140020941400200FB400B583B008482C
:1045100002F0EAF8049B002B07D005A901911800CE
:1045200002F0F2F8034802F0DFF80120FFF732FF53
:10453000D8BF0110BCB2011010B50148FFF7E4FF6D
:10454000E8BF01109A4200D288547047704710B5F6
:10455000002802D00B684968984710BD0100002070
:1045600007E083001B185B00501C08601078C0181F
:1045700030380A681378303BDBB2092BF1D9704729
:10458000F0B5DE4657464E464546E0B583B0934605
:104590001F000C9B9A460D9C0E9B99460F9B9B07F8
:1045A00003D0B8460F00060022E00192A3468846D9
:1045B0004E46B9460700B44207D2551C4B46414609
:1045C0002020B84701342A00F5E73D004F465C46FD
:1045D000019B9B46B1464646B84637002E0007E091
:1045E000013C551C5346185D43463900B0472A002C
:1045F000002CF5D135003E0047460F9B9B0707D4A2
:10460000100003B0F0BCBB46B246A946A046F0BDC0
:10461000B0464E46B9462F005D46531BB342EFD21B
:10462000541C4B4641462020B8472200F5E7F0B520
:10463000CE46474680B585B0944698460C9D0D9C65
:104640000EAB1B789946109A119B129EB7071CD48B
:10465000002B0CD0F7070AD54F46002F02D10C379C
:10466000374204D0013B02E030272F5501349442F9
:1046700001D21F2CF8D9F70707D59C4205D21F2C71
:1046800003D830272F550134F5E7F70612D5770503
:1046900005D4002C03D0944221D09C421FD00F9A05
:1046A000102A32D00F9A022A37D01F2C0AD8302273
:1046B0002A5501341F2C05D84A46002A33D02D2212
:1046C0002A550134039602930194009543466246AD
:1046D000FFF756FF05B0C0BCB946B046F0BD621E3C
:1046E000012C10D00F9F102F0BD014000F9A102AFE
:1046F000D8D1B206D6D51F2CD4D858222A55013489
:10470000D3E7023CCBE71400C9E7B206EED41F2C76
:10471000ECD878222A550134C7E71F2CD2D8603252
:104720002A550134C1E7720703D52B222A550134DB
:10473000C8E73207C6D520222A550134C2E7F0B5B2
:10474000DE4657464E464546E0B593B081468A461A
:10475000089209931CAB10CB1B789B461E9D219B96
:104760009846002C03D1102342469A43904680235A
:10477000DB0046461E4042461A4212D0002C22D090
:1047800000260EE03033D9B2771C0AAB99552900C8
:10479000200001F02DF8AC4216D31F2F14D83E0094
:1047A00004002900200001F023F8CBB2092BE9D93D
:1047B0004246920605D54121C918C9B20A39C9B283
:1047C000E2E76121F8E7270043460693209B059323
:1047D0001F9B049303955B46029301970AAB0093DA
:1047E000099B089A51464846FFF721FF13B0F0BCD9
:1047F000BB46B246A946A046F0BDF0B5DE465746D8
:104800004E464546E0B597B00A900B910C929A46F9
:10481000209B9946219F22AA13789B46249B0993AB
:10482000259C289B98464A463A4302D1103293432E
:1048300098468022D20045461540434613420AD08E
:104840004A463A4341D000252E0053460D934D462B
:10485000099B9A461BE02E0053460D934D46099B3B
:104860009A4614E03033DAB2731C99460EAB9A556F
:10487000524623002800390000F0F8FFBC4226D839
:1048800019D04B461F2B1CD84E4605000F00524630
:1048900023002800390000F0E9FFD3B2092BE1D949
:1048A0004246920605D54122D218D2B20A3AD2B275
:1048B000DAE76122F8E7AA45E3D94E460D9B9A460E
:1048C00008E04E460D9B9A4604E0002602E04E4664
:1048D0000D9B9A4643460693279B0593269B04937C
:1048E000099B03935B46029301960EAB00935346DC
:1048F0000C9A0B990A98FFF79AFE17B0F0BCBB46CA
:10490000B246A946A046F0BDF0B5DE4657464E4633
:104910004546E0B591B0804689460C929A461A9C6D
:104920001B9D22002B002000290001F01AFA00280C
:1049300000D0ECE001225242D44B2000290001F0CB
:104940000BFA002800D0E2E001225242D04B2000B6
:10495000290001F0EBF9002800D0D8E00022002364
:104960002000290001F0E2F9002800D0E4E00694DC
:1049700007958023DB001E9A1A400D921E9A1A4258
:1049800001D106231C930698079902000B00089298
:10499000099303000A00024300D1D9E0080D400545
:1049A000400DBC4EB44660440A03120B1E00BA4BC5
:1049B00013431F0001F0E8F9B84AB94B01F077F949
:1049C000B84AB94B01F054F9089009910022B74B4D
:1049D0003000390001F047F9B54AB64B01F067F9EC
:1049E00002000B000898099901F042F901F0E4F97E
:1049F000834601F0C9F906000F00AF4AAF4B01F042
:104A000056F90022AE4B01F033F901F0D5F90890C8
:104A1000AC4AAD4B3000390001F049F906000F00F7
:104A2000089801F0B1F9A94AA94B01F040F9020038
:104A30000B003000390001F016F906000F000200EB
:104A40000B0001F034F90A900B91089BA14A94469F
:104A5000634400210022089109921B050993002359
:104A6000089332003B003000390001F001F90E904C
:104A70000F9132003B0000208021C90501F0F3F8BE
:104A800006000F000022944B0A980B9901F0F5F8EC
:104A90000022924B01F0ECF802000B000A980B99EF
:104AA00001F0EBF800228E4B01F0E2F802000B005F
:104AB0000A980B9901F0E1F802000B003000390070
:104AC00001F0D6F802000B000E980F9901F0D5F80E
:104AD0000022714B01F0CCF8089A099B01F0E7F82D
:104AE00006000F0008960997069A079B01F034F913
:104AF00000282FD001235B429C46E3440022774BE1
:104B00003000390001F0B9F80890099122E01E9BAD
:104B100004931D9B03931C9B0293009401955346A1
:104B20000C9A4946404600F0FFF811B0F0BCBB4675
:104B3000B246A946A046F0BD002100220691079288
:104B4000069480231B069C46AC446346079310E7FB
:104B500000239B465B466333C62B20D804261E9B4E
:104B60001B0528D5089A099B190011430FD05D4AEF
:104B70005D4B0698079901F0E7F800287AD00022EB
:104B80005A4B0698079901F0D1F8002872D01C9B67
:104B90005B4506DD5A469B1A013B1C9303E0052644
:104BA000DDE700231C938023DB001E9A1A431E922C
:104BB000002600239B461D9B9E4265D29F1B02231D
:104BC0001E9A1A400A921E9A134202D0002E00D05A
:104BD00000275B46002B07D0089A099B0698079987
:104BE00001F04BF8069007910022002320002900D5
:104BF00001F09CF8002800D07CE03D4B1E9A134049
:104C0000049303971C9B0293069B079C00930194BB
:104C100053460C9A4946404600F086F8002E00D1D3
:104C200083E71E9B9B0671D54525441C5346020015
:104C300049462800C0475A46D317D2185A40052380
:104C40000593013E0496002303930A3302935B46C7
:104C5000DB0F019300925346220049464046FFF77E
:104C60006EFD0A9B002B00D15FE7020047460C9EB9
:104C70001D9D53E01C9B002B9DD00D9B002B9AD0BB
:104C80001C9B013B1C9396E7002798E7FFFFEF7FF3
:104C9000FFFFEFFF01FCFFFF0000F03FFB799F509B
:104CA0001344D33FB3C8608B288AC63F0000F83F47
:104CB00061436F63A787D23F71A379094F930A407D
:104CC0000000E03F1655B5BBB16B0240EF39FAFE6C
:104CD000422EE63FFF03000000002C40000024406D
:104CE000000018402D431CEBE2361A3F80842E4111
:104CF000FFF7FFFF069C079D220029008020000689
:104D0000844661440B000692079376E765258CE79D
:104D1000541C534649462020B8472200931BAB42FF
:104D2000F6D3100001E7C046F0B5DE4657464E46C2
:104D30004546E0B595B00690079193469946209F69
:104D40001E9A1F9B1000190001F00BF8002831D1AA
:104D500001225242BF4B1E981F9900F0E7FF002826
:104D600037D101225242BC4B1E981F9900F0F4FF2C
:104D700000283DD10022B94B1E981F9900F0ECFF8E
:104D8000002850D10022B64B1E981F9900F0CEFF8C
:104D9000002848D1002200231E981F9900F0C6FF6A
:104DA000002850D100239846229B5B0500D4B6E032
:104DB000002458E0229B0393219B02930323019339
:104DC000A84B00934B465A4607990698FFF7D8FB25
:104DD0000EE1229B0393219B029304230193A24B98
:104DE00000934B465A4607990698FFF7C9FBFFE028
:104DF0000423229A1A4022990B4210D09B4B002A7E
:104E00000FD00422229903912199029101920093DB
:104E10004B465A4607990698FFF7B2FBE8E0944BD9
:104E2000EDE70322EEE7229B0493219B0393029775
:104E30001E9B1F9C009301944B465A460799069867
:104E4000FFF762FDD4E01E9A1F9B0020002100F0B6
:104E50000AFF1E901F9101239846A5E70CAB302254
:104E60001A55013F01341F2C01D8092FF6D81E987E
:104E70001F9900F0A1FF050000F086FF02000B0063
:104E80001E981F9900F0EFFE7A4BFA009B181A68E3
:104E90005B680A920B9300F00AFF0890099100F0FA
:104EA000AFFF060000F06CFF02000B0008980999A4
:104EB00000F0D9FE0890099100226F4B00F04CFFE2
:104EC00000282ED00136300000F05AFF02000B00FF
:104ED0000A980B9900F030FF002801D00135002618
:104EE000002F2CD1280000F04FFF02000B001E986D
:104EF0001F9900F0B8FE06000F0000225E4B00F084
:104F000015FF002846D100225B4B3000390000F02D
:104F100023FF00283ED1EB073CD501353AE00627B8
:104F200046E70022544B0898099900F0FFFE00283C
:104F3000D6D1002E01D0F307D2D50136D0E7AA464C
:104F40001F2C11D8013F0A21300000F051FC651CD4
:104F500030310CAB19550A21300000F049FC092E04
:104F60000ED906002C00EBE755461F2C0CD87B1EF3
:104F7000002F09D00CAA302111551F000134F4E78D
:104F80002B0055461C00F0E71F2C03D80CAB2E223B
:104F90001A5501341F2C10D80A21280000F000FCFB
:104FA000661C30310CAB19550A21280000F0F8FBC3
:104FB000051E01D03400EDE734000323229A13408C
:104FC000012B1CD01F2C06D84346002B32D00CAB33
:104FD0002D221A550134229B0393219B02930194A5
:104FE0000CAB00934B465A4607990698FFF7C8FA50
:104FF00015B0F0BCBB46B246A946A046F0BD219B09
:10500000002B13D04346002B02D10C3313420FD098
:10501000219B013B2193190003E00CAB30221A5570
:1050200001348C42CED21F2CF7D9CBE72199F8E777
:105030002199F6E7229B5B0704D50CAB2B221A556E
:105040000134C8E7229B1B07C5D50CAB20221A559B
:105050000134C0E7FFFFEFFFFFFFEF7F65CDCD41DC
:1050600065CDCDC104C0011008C00110F8BF01100A
:1050700000C00110080E02100000E03FF0B5DE464F
:1050800057464E464546E0B593B08246884693461D
:105090001193002900D10DE300255646119B187885
:1050A000002800D109E3252809D06C1C5B462A00A2
:1050B0004146B047119B013311932500EEE70133C0
:1050C0001193002720E001231F4301321192012494
:1050D00018E002231F4301321192012412E004233D
:1050E0001F430132119201240CE008231F430132B7
:1050F0001192012406E010231F4301321192012472
:1051000000E00024002C09D0119A1378203BD9B27A
:105110001029F6D88B00C849CB589F46119B1A78A6
:105120001300303BDBB2092B10D92A2A13D00B9481
:10513000119B1A782E2A1ED0119A1378683BD9B287
:10514000122959D88B00BD49CB589F4611A8FFF7AB
:1051500005FA0B90ECE71C9B1A1D1C921B68002B98
:1051600004DB0B93119B01331193E1E702221743F8
:105170005B420B93F6E78022D20017435A1C119230
:105180005A781300303BDBB2092B0BD92A2AD3D132
:105190001C9B1A1D1C921C68002C08DB119B013300
:1051A0001193C9E711A8FFF7D9F90400C4E7002457
:1051B000F4E780235B003B43511C119151786C292B
:1051C00001D01F0018E0C0239B001F430232119240
:1051D00012E080233B43511C11915178682901D082
:1051E0001F0009E0C0231F430232119204E0802314
:1051F0005B001F4301321192119B1878672818D861
:10520000252800D24CE20300253BDAB2422A00D91D
:1052100046E293008A4AD3589F4680239B001F434F
:1052200001321192E8E780235B001F4301321192A3
:10523000E2E7782800D933E2692800D230E20200A0
:10524000693AD2B2012393407E4A134211D11A0621
:1052500000D500E25B0500D422E21C9B1A1D1C92C3
:105260001B689A46002C00D0B2E1012252425346FC
:105270008EE16F280ED006D858283DD0622804D180
:1052800002239C4608E0782839D010239F43063B30
:105290009C4601E008239C46582833D0692803D057
:1052A000642801D00C2297437A0501D50122974347
:1052B00069282AD0642828D0BA0500D59FE0FA05CD
:1052C00000D5C1E07A0600D4D3E01C9A111D1C91D0
:1052D0001168FF220A4005970B9B049303946346D1
:1052E00002930023019300925B462A00414630005E
:1052F000FFF725FA050027E010239C46CCE7102392
:105300009C46C9E720221743C8E7BA0520D4FA050E
:1053100050D47A0666D51C9A111D1C911168FF2283
:105320000A40D0171118414005970B9B0493039432
:1053300063460293D20F019200915B462A004146D8
:105340003000FFF7FCF90500119B01331193A5E62E
:105350001C9A073207218A43110008311C911168F9
:1053600053689946DB170C930D930C9A0D9B100014
:1053700048400E904A4653400F930E980F990C9A4E
:105380000D9B801A99410E900F9108970B9B0793E4
:10539000069463460493002305934B46DA0F02926A
:1053A000009001915B462A0041463000FFF725FA44
:1053B0000500C9E71C9A111D1C911268D01711181D
:1053C000414005970B9B0493039463460293D20FCD
:1053D000019200915B462A0041463000FFF7AFF989
:1053E0000500B1E73A0605D51C9A111D1C91002352
:1053F000D25E96E71C9A111D1C91126891E71C9AC7
:10540000073207218A43110008311C9108970B9B32
:10541000079306946346049300230593029353680D
:105420001268009201935B462A0041463000FFF764
:10543000E4F9050088E7C0466C0C0210B00C0210BD
:10544000FC0C0210419000001C9A111D1C91059744
:105450000B9B049303946346029300230193136808
:1054600000935B462A0041463000FFF768F90500CB
:105470006AE73A0606D51C9A111D1C91126812049F
:10548000120C28E71C9A111D1C91126823E746286C
:1054900019D01C9B0733072293431A0008321C9231
:1054A00004970B9A039202941A685B680092019326
:1054B0005B462A0041463000FFF736FC0500119B91
:1054C00001331193EAE520231F43E2E7672801D067
:1054D000472802D180231B011F43452801D04728BC
:1054E00001D120231F431C9B0733072293431A003B
:1054F00008321C9204970B9A039202941A685B6814
:10550000009201935B462A0041463000FFF7FCF908
:105510000500119B01331193C0E502231A003A40A4
:1055200091463B421DD001241C9B1A1D1C926F1CEE
:1055300018785B462A004146B0474B46002B14D1F1
:10554000119B013311933D00A8E5571C5B46414672
:105550002020B04723003A005C1C9D42F5D815007E
:10556000E2E701232A000B9DF6E73A00B1460B9EC5
:1055700006E0571C5B4641462020C8472C003A00F5
:10558000651CA642F5D817004E46D9E701330A003C
:105590001978002902D0511E002AF7D152469B1AD1
:1055A0008022D200390011408946174202D0A3421E
:1055B00000D9230002221100394010913A4209D04B
:1055C0002A00250057469A4633004E46994621E068
:1055D00022004CE62A004546A04606E0541C5B46E5
:1055E00029002020B0473B0022005F1C0B99994204
:1055F000F4D84446A8463B00250057469A46330057
:105600004E46994606E01D000137541C5B46414654
:10561000C84722003878002804D0002EF4D06B1E32
:10562000002DF0D1150053464E46109A002A03D1A2
:10563000119B0133119331E50B9F2A0006E0551CA5
:105640005B4641462020B04723002A005C1C9F4255
:10565000F5D81500ECE721233B431C9A111D1C9142
:1056600012680593082304930394083302930023DC
:10567000019300925B462A0041463000FFF75FF835
:105680000500119B0133119308E56C1C5B462A0051
:1056900041462520B047119B013311932500FDE4BD
:1056A0006C1C5B462A004146B047119B01331193A5
:1056B0002500F3E40A4B9A46EEE4B2465D450DD36D
:1056C0005B465A1E5B4641460020D047280013B077
:1056D000F0BCBB46B246A946A046F0BD2A00F1E7A1
:1056E0004D4500100CB430B585B00A0008AC08CCAC
:1056F0000394054D009401002800FFF7BFFC05B09E
:1057000030BC08BC02B018474545001000B585B054
:105710000290039101210448009313004A4202A918
:10572000FFF7ACFC05B000BD4F4500100148042157
:10573000014B1847600E002069570010014B9B6811
:1057400018470000600E002010B5010018231B88C8
:1057500014221088984710BD10B5010018231B882B
:1057600016221088984710BDF0B5C64600B5070050
:105770000E0000250123984600E00135B5420AD20B
:10578000AC003C192068FFF7DFFF20600028F4D14F
:1057900000239846F1E7404680BCB846F0BD0000C3
:1057A000124A936F9B0815D29066D166002905D0E6
:1057B000FFE7FFE7FFE7516F106F704704B58021E7
:1057C0000906C2175140002800D0C84315F0B0F9AF
:1057D000002104BDF0B5146E556E576F166FFFF7BC
:1057E000E3FF1466556657671667F0BD000000D0EA
:1057F000114A936F9B0813D210665166002905D099
:10580000FFE7FFE7FFE7516F106F704704B500280F
:1058100001D00020C04315F08BF9002104BDC04623
:10582000F0B5146E556E576F166FFFF7E5FF1466EF
:10583000556657671667F0BD000000D094464A4A87
:10584000926F9208624601D228E0C046F0B5464EFB
:10585000346E756E776F366F00F020F89446424ACA
:1058600014665566576716676246F0BD94463E4A11
:10587000926F9208624601D254E0C046F0B53A4EAB
:10588000346E756E776F366F00F04CF89446364A7A
:1058900014665566576716676246F0BD002B24DB19
:1058A00011D000293EDA00B5C943404200D1013190
:1058B00000F038F8C943404200D10131DB43524285
:1058C00000D1013300BD002AEBD1002801D100290D
:1058D00005D00020C90FC90701D1C043410800B558
:1058E00015F00EF90022002300BD00B500290ADBE7
:1058F000DB43524200D1013300F014F8C943404267
:1059000000D1013100BDC943404200D10131DB4328
:10591000524200D1013300F005F8DB43524200D17E
:10592000013300BD002923D1002B18D1002A0CD04F
:10593000BC460D4F38667A6600210023FFE7FFE77B
:10594000FFE77A6F386F67467047002801D0074835
:10595000010000B515F0D4F80022002300BD0200BC
:105960000B00002000217047000000D0FFFFFFFF68
:10597000002B00D0BFE0130C28D1002AE7D080B460
:10598000114F39667A66FFE7FFE730B4040C7B6F8E
:10599000396F1B0423433B667A66FFE7FFE7FFE7A7
:1059A000C04684B27B6F3D6F1B0423433B667A661F
:1059B000FFE7FFE7C04600232C042D0C7A6F386FF9
:1059C00000196941B0BC7047000000D0F0B59446A2
:1059D0000025140E01D112020835140F01D1120155
:1059E0000435940F01D192000235D40F01D1520039
:1059F0000135D40B0134254F7C66254C3C660E0CDA
:105A000093B2FFE7FFE7FFE73C6F6643360C77038F
:105A1000BE467343DF0B5B04C01AB941130C7343DA
:105A2000DB18C91ACE086643360CB64493B27343EA
:105A30001F0F1B01C01AB941130C73431F0B1B0529
:105A4000C01AB941860D8F023E436643360C092DBC
:105A500024DB520A7243801A7703460A6643360CE7
:105A600016235B1BDE40DF40BF1964466643821B82
:105A70007046043506330100D940A840C01900D350
:105A80000131A24206D20023F0BD0000000000D088
:105A9000FFFFFFFF121B0130F3D3F1E709277F1B44
:105AA000FE406446A2B27243801A00D20139220C31
:105AB0007243130C1204821A99410B00704604358C
:105AC00013370100F940A840801900D30131002BA1
:105AD00002D1A2420AD2F0BD013000D30131121B23
